:020000040800F2
:100000006804002045010008B50D0008810D0008B6
:10001000B10D0008F50B000887140008000000006F
:100020000000000000000000000000006D0F00084C
:10003000050C0008000000003D0E0008E11100085A
:100040005F0100085F0100085F0100085F01000810
:100050005F0100085F0100085F0100085F01000800
:100060005F0100085F0100085F0100085F010008F0
:100070005F0100085F0100085F0100085F010008E0
:100080005F0100085F0100085F0100085F010008D0
:100090005F0100085F0100085F0100085F010008C0
:1000A0005F0100085F0100085F0100085F010008B0
:1000B0005F0100085F0100085F0100085F010008A0
:1000C0005F0100085F0100085F0100085F01000890
:1000D0005F010008851200085F0100085F01000849
:1000E0005F0100085F0100085F0100085F01000870
:1000F0005F0100085F0100085F0100085F01000860
:100100005F0100085F0100085F0100085F0100084F
:100110005F0100085F0100085F0100085F0100083F
:100120005F0100085F0100085F0100085F0100082F
:10013000DFF80CD000F0C0FA00480047F9160008BC
:10014000680400200648804706480047FEE7FEE7AF
:10015000FEE7FEE7FEE7FEE7FEE7FEE7FEE7FEE777
:10016000251200083101000840EA01039B0703D073
:1001700009E008C9121F08C0042AFAD203E011F8E6
:10018000013B00F8013B521EF9D2704780EA0102A0
:1001900010B502F00043400022D04A001FD0010EEB
:1001A00001EB1261C0F35600C2F3560240F40000A6
:1001B00042F40002A0FB022000047F39140400D0A6
:1001C000401C50EA124001D44000491EC2B20C0645
:1001D00004EBD010401C4008802A02D003E000202D
:1001E00010BD20F00100002900DA0020184310BDE6
:1001F00030B480EA010202F0004530F0004221F004
:10020000004013D090B1C30DD40DC2F31601C0F35A
:100210001600E41A41F4000140F400027D349142DA
:1002200001D3641C00E04900002C02DA30BC00203D
:1002300070474FF400000023914201D3891A034311
:1002400040084FEA4101F7D151B1914202D14FF03C
:10025000004105E002D24FF0010101E06FF0010121
:1002600003EBC450284430BC00F092B92DE9FE4F96
:1002700081EA030404F0004421F0004100944FF0AF
:10028000000B23F0004350EA01045ED052EA03045D
:100290005BD0C3F30A54C1F30A552C44A4F2F334DF
:1002A0000194A0FB0254C1F3130141F48011C3F384
:1002B000130343F4801301FB024400FB034E840A42
:1002C000970A44EA815447EA8357A4FB07680295DA
:1002D0008D0A05FB07854FEA932C04FB0C54270578
:1002E000029D4FEA065847EA1637B5EB08056EEB54
:1002F000070C870E920E47EA811742EA8312A7FB8A
:100300000201B6EB0B0164EB00042B0D43EA0C3346
:100310005E1844EB1C50DA465146E7FB0201C5F378
:1003200013044FEA0B3343EA14534FEA0432019C9F
:1003300043EA0603A4F10C040294009CCDE900B446
:1003400000F06CF903B0BDE8F08F00200146F9E73A
:100350002DE9F04D81EA030404F0004B21F0004543
:1003600014464FF0000A23F0004150EA050220D065
:1003700054EA01021DD0C5F30A570246C5F3130320
:10038000C1F31300C1F30A5640F4801543F48013FF
:10039000A7EB0608101BD64608F2FD3873EB0500E4
:1003A00002D308F1010801E092185B41B8F1000F97
:1003B00003DA00200146BDE8F08D00204FF48011E3
:1003C000064684460EE0171B73EB050705D3121B88
:1003D00063EB050306434CEA010C49084FEA300081
:1003E00092185B4150EA0107EDD152EA030012D0A6
:1003F00082EA040083EA0501084305D0101BAB41E3
:1004000006D20122002306E000224FF0004302E062
:100410006FF0010253101AEB06004CEB085110EB81
:100420000A0041EB0B01BDE8F04D00F0E8B8C10F48
:1004300080EAE0700844CA079623002100F0B1B8B2
:100440000EB5C10F80EAE0700844CA07002140F2EF
:1004500033438DE80E000A460B4600F0DFF803B088
:1004600000BD00F0004220F00040C10DC0F31600B6
:1004700040F400007F2901DA00207047962903DC50
:10048000C1F19601C84001E096398840002AF4D0B5
:100490004042704770B5C1F30A5201F00045002494
:1004A000C1F3130140F2FF3341F480119A4201DAA3
:1004B000002070BD40F233439A42A2F2334203DC83
:1004C000524200F055F800E090402C43F1D04042F9
:1004D00070BD00F0004230F000400AD0C10D01F5BF
:1004E0006071C0F3160042EA0151C208400711438F
:1004F000704700200146704701F0004330B421F0FE
:10050000004150EA010206D00A0DA2F56072C1F363
:100510001301002A02DC30BC00207047440F44EA7B
:10052000C104C100E01830BC00EBC25000F030B88C
:10053000002801DBC0F10040002901DBC1F10041CE
:100540008142704730B50B4601460020202201242D
:1005500009E021FA02F59D4205D303FA02F5491B91
:1005600004FA02F52844151EA2F10102F1DC30BDA7
:10057000202A04DB203A21FA02F00021704721FAF8
:1005800002F3D040C2F1200291400843194670475F
:100590000029A8BF7047401C490008BF20F0010097
:1005A000704710B4B0FA80FC00FA0CF050EA010475
:1005B00004BF10BC704749B1CCF1200421FA04F407
:1005C00011FA0CF118BF012121430843A3EB0C01E0
:1005D000CB1D4FEA00614FEA102042BF002010BC43
:1005E000704700EBC35010440029A4BF10BC7047F3
:1005F000401C490008BF20F0010010BC704710B536
:10060000141E73F1000408DA401C41F10001921835
:100610005B411A4301D120F0010010BD2DE9F04DDE
:1006200092469B4611B1B1FA81F202E0B0FA80F233
:100630002032904600F052F804460F4640EA0A0085
:1006400041EA0B0153465A46084313D0114653EA78
:10065000010019D0C8F140025046FFF789FF054656
:100660000E4650465946424600F038F8084305D039
:10067000012004E020463946BDE8F08D0020054306
:1006800046EAE0762C4337430A986305E40AA0EB78
:1006900008000022FD0A44EA47540A3002D500202F
:1006A0000146E9E7010510196941DDE9084500192E
:1006B0006941BDE8F04DA2E7064C074D06E0E06851
:1006C00040F0010394E8070098471034AC42F6D399
:1006D000FFF732FD2823000848230008202A04DB06
:1006E000203A00FA02F1002070479140C2F1200345
:1006F00020FA03F319439040704700002DE9F041C0
:1007000004460D464FF48051204800F009FB4FF499
:1007100080411E4800F004FB4FF400511B4800F0DC
:10072000FDFA05EB04274FF48051184800F0F6FA63
:100730004FF48041154800F0F1FA00261CE04FF418
:100740008041124800F0EAFA07F4004028B14FF463
:1007500000510E4800F0E4FA04E04FF400510B4859
:1007600000F0DCFA7F004FF48041084800F0D8FA2E
:1007700000F00EF8701CC6B2102EE0DB4FF4805172
:10078000024800F0CDFABDE8F0810000000C014005
:10079000002001E0411C88B20128FBDB704700000B
:1007A00008B50121082000F057FB4FF47040ADF868
:1007B000000003208DF8020010208DF80300694628
:1007C000014800F020FA08BD000C01402DE9F04F6F
:1007D00085B005460E4693461C464FF08041314891
:1007E000CDE902102F46B04600222F4B3846414635
:1007F000FFF7AEFD0746884638464146DDE902234D
:10080000FFF734FD0746884638464146FFF742FE6B
:100810000190DDF80490C9F30D0901984FEAA03A60
:10082000CAF30D0A0E9840F4404004904FF48070D3
:1008300000F03CF84FF4045000F038F8BBF1000F22
:100840000CD149F480494AF4804A484600F02EF819
:10085000504600F02BF8049800F028F8BBF1010F87
:100860000CD149F400494AF4004A484600F01EF809
:10087000504600F01BF8049800F018F81CB942F23A
:10088000020000F013F8022C03D142F2280000F01D
:100890000DF8012C02D1600300F008F805B0BDE8A6
:1008A000F08F0000E17A644180842E4170B50446E7
:1008B0004FF480411A4800F033FA4FF400411848D1
:1008C00000F02EFA4FF40041154800F027FA0025F9
:1008D0001EE004F4004028B14FF40051104800F02D
:1008E0001FFA04E04FF400510D4800F017FAFFF72B
:1008F0004FFF4FF480410A4800F010FAFFF748FF1D
:100900004FF48041064800F00BFA6400681CC5B241
:10091000102DDEDB4FF40041014800F001FA70BDFC
:10092000000C014000B587B001214FF4017000F0C8
:1009300093FA4FF4004000F083FA0220ADF804006F
:1009400000208DF8070001A9214800F05CF9012082
:10095000ADF8040000208DF8070001A91C4800F044
:1009600052F90420ADF8040000208DF8070001A919
:10097000174800F048F9174800F03AF800200290B4
:100980008DF80C008DF80D004FF4602004900020CD
:10099000059001208DF8180002A90E4800F078F8A3
:1009A00001210C4800F018F80A4800F0F5F800BFE3
:1009B000084800F062F80028FAD1064800F0FCF878
:1009C00000BF044800F042F80028FAD107B000BD8B
:1009D000000801400024014021B1826842F0010278
:1009E000826003E0826822F00102826070470000AA
:1009F00010B504461248844208D10121401500F088
:100A00003BFA0021601500F037FA17E00D488442E8
:100A100008D10121001500F02FFA0021201500F067
:100A20002BFA0BE00848844208D10121C80300F0EA
:100A300023FA00214FF4004000F01EFA10BD000020
:100A40000024014000280140003C014001460020F4
:100A50008A6802F004020AB1012000E00020704719
:100A60000146C86C80B270470246002013680B40F4
:100A70000BB1012000E000207047014600208A6889
:100A800002F008020AB1012000E0002070470000D7
:100A900030B502460020002350680F4C20400D79ED
:100AA0000C6844EA05242043506090680B4C2040B9
:100AB000D1E902542C434D7944EA45042043906027
:100AC000D06A20F470000C7C641EE4B2234340EA38
:100AD0000350D06230BD0000FFFEF0FFFDF7F1FFD4
:100AE000F0B504460D4600200021092D11DDE06817
:100AF000A5F10A0606EB4607072606FA07F1884322
:100B0000A5F10A0606EB460603FA06F10843E06083
:100B10000CE0206905EB4507072606FA07F1884334
:100B200005EB450603FA06F108432061072A0FDAB0
:100B3000606B561E06EB86071F2606FA07F18843F0
:100B4000561E06EB860605FA06F10843606322E0AE
:100B50000D2A0FDA206BD61F06EB86071F2606FA32
:100B600007F18843D61F06EB860605FA06F108430F
:100B7000206310E0E06AA2F10D0606EB86071F264F
:100B800006FA07F18843A2F10D0606EB860605FA80
:100B900006F10843E062F0BD816841F00801816020
:100BA000704721B1826842F4A002826003E082684B
:100BB00022F4A00282607047816841F004018160E4
:100BC0007047000008B54FF4C050ADF80000102089
:100BD0008DF8030003208DF802006946044800F0F8
:100BE00012F84FF4C051024800F098F808BD000018
:100BF0000008014000BFFEE710B54FF4A06000F010
:100C000013F910BD70472DE9F0410246002500267A
:100C1000002000230024002791F803C00CF00F05EA
:100C200091F803C00CF0100CBCF1000F03D091F848
:100C300002C04CEA050591F800C0BCF1000F31D0AC
:100C4000146800202BE04FF0010C0CFA00F3B1F80F
:100C500000C00CEA03069E4220D183004FF00F0C27
:100C60000CFA03F7BC4305FA03FC4CEA040491F8C0
:100C700003C0BCF1280F06D14FF0010C0CFA00FCA8
:100C8000C2F814C00AE091F803C0BCF1480F05D1C6
:100C90004FF0010C0CFA00FCC2F810C0401C0828F0
:100CA000D1D31460B1F800C0BCF1FF0F34DD54683B
:100CB00000202EE000F1080C4FF0010808FA0CF3B8
:100CC000B1F800C00CEA03069E4221D183004FF028
:100CD0000F0C0CFA03F7BC4305FA03FC4CEA0404BE
:100CE00091F803C0BCF1280F05D100F1080C08FAF7
:100CF0000CF8C2F8148091F803C0BCF1480F07D17A
:100D000000F1080C4FF0010808FA0CF8C2F8108046
:100D1000401C0828CED35460BDE8F0814161704783
:100D20000161704710B50446072301222146094896
:100D3000FFF7D6FE01210748FFF733FF00BF02216E
:100D40000448FFF791FE0028F9D00248FFF788FE1B
:100D500010BD0000002401402DE9F04107460A249F
:100D60000025002605E03846FFF7DCFF0544701C2F
:100D7000C6B2A642F7DBB5FBF4F080B2BDE8F08165
:100D800000BFFEE708B50121102000F065F8102033
:100D90008DF803004002ADF8000003208DF802003A
:100DA00069460248FFF72FFF08BD00000010014010
:100DB00000BFFEE77047000070B5002100230F223E
:100DC000C47804B3154C246804F4E064C4F5E0640A
:100DD000210AC1F10403CA40447804FA03F184787B
:100DE0001440214309010E4C0678A155047804F003
:100DF0001F050124AC4005786D11AD0005F1E0251B
:100E0000C5F8004109E0047804F01F050124AC4056
:100E1000044D0678761145F8264070BD0CED00E0D3
:100E200000E400E080E100E002490143024A116071
:100E3000704700000000FA050CED00E0704700006C
:100E400001460020034A506820F4404008435060A7
:100E5000704700000010024029B1064A926902431F
:100E6000044B9A6104E0034A92698243014B9A6100
:100E7000704700000010024029B1064AD2680243C0
:100E8000044BDA6004E0034AD2688243014BDA6023
:100E9000704700000010024030B5002100220024FD
:100EA00000232D4D6D6805F00C0121B1042905D0FA
:100EB000082923D105E0294D056022E0274D056072
:100EC0001FE0254D6D6805F47012234D6D6805F423
:100ED0008034022505EB92421CB9214D5543056033
:100EE0000BE01D4D6D6805F400351DB11C4D5543DB
:100EF000056002E0194D5543056002E0174D05609D
:100F000000BF00BF144D6D6805F0F0010909154DD3
:100F10006B5C0568DD4045600F4D6D6805F4E06170
:100F2000090A104D6B5C4568DD4085600A4D6D68AF
:100F300005F46051C90A0B4D6B5C4568DD40C56026
:100F4000054D6D6805F44041890B074D6B5CC56824
:100F5000B5FBF3F5056130BD0010024000127A00C8
:100F600000093D000000002010000020704710B56F
:100F700000F002F810BD00000CB5002001900090B8
:100F80003348006840F480303149086000BF304881
:100F9000006800F4003000900198401C0190009817
:100FA00018B90198B0F5A06FF1D12948006800F494
:100FB000003010B10120009001E000200090009866
:100FC000012843D12348006840F0100021490860FF
:100FD0000846006820F0030008600846006840F0FA
:100FE000020008601A48406819494860084640688D
:100FF00048600846406840F48060486008464068A1
:1010000020F47C1048600846406840F4E8104860CE
:101010000846006840F08070086000BF0C48006817
:1010200000F000700028F9D00948406820F0030063
:10103000074948600846406840F00200486000BF29
:101040000348406800F00C000828F9D10CBD0000EE
:10105000001002400020024010B54FF48071024899
:10106000FFF75CFE10BD00000008014010B54FF412
:1010700080710248FFF754FE10BD000000080140D7
:1010800010B510210148FFF749FE10BD00080140CE
:1010900010B510210148FFF743FE10BD00080140C4
:1010A00010B520210148FFF739FE10BD00080140AE
:1010B00010B520210148FFF733FE10BD00080140A4
:1010C00010B540210148FFF729FE10BD000801407E
:1010D00010B540210148FFF723FE10BD0008014074
:1010E00010B580210148FFF719FE10BD000801402E
:1010F00010B580210148FFF713FE10BD0008014024
:1011000008B54FF4F870ADF8000010208DF803001A
:1011100003208DF8020069460448FFF774FD4FF480
:10112000F8710248FFF7FAFD08BD00000008014011
:1011300010B5FFF761FD00F01BF8FFF723FE00F08C
:10114000A5F9FFF7DDFFFFF73DFDFFF729FBFFF7EF
:10115000E9FB10BD002181F3108800BF034908603E
:1011600000BF024909680029FBD170474C000020EC
:1011700070B5002105E00020154A42F82100481C06
:10118000C1B20629F7DB134AB2F1807F00D31DE01C
:1011900022F07F40401E4FF0E023586158170F2384
:1011A000002807DA1C07260E0B4C00F00F052D1F38
:1011B000665503E01C07250E084C255400BF00208F
:1011C0004FF0E02398610720186100BF70BD000058
:1011D0004C0000204019010018ED00E000E400E0A0
:1011E00000200CE00D4951F8201031B10B4951F8A5
:1011F0002010491E094A42F82010411CC8B2062896
:10120000F0DB07490968064A1268521C044B491C66
:101210001A6011B900211A46116070474C00002075
:101220004400002010B51348006840F00100114947
:10123000086008464068104908400E494860084662
:1012400000680E4908400B4908600846006820F411
:10125000802008600846406820F4FE0048604FF493
:101260001F008860FFF783FE4FF0006004490860AC
:1012700010BD0000001002400000FFF8FFFFF6FE66
:1012800008ED00E010B520211C4800F054F848B3E8
:101290001A4800F0EFF8C4B2012C03D1012018491C
:1012A00008701BE01CB902201549087016E0022CDA
:1012B00003D103201249087010E0032C03D1012050
:1012C000104908700AE0082C03D100200E4908706C
:1012D00004E0082C02D101200B49087020210748A6
:1012E00000F014F80821054800F025F8012803D182
:1012F0000821024800F00AF810BD00000038014043
:1013000015000020400000201600002001F40072AB
:10131000B2F5007F00D100BFCA430280704721B1FF
:10132000828942F40052828104E082894DF6FF7383
:101330001A408281704702460020B1F5007F00D13B
:1013400000BF13880B400BB1012000E00020704764
:10135000F0B50346002400260025002040F66A1759
:10136000B94200D100BF1846C1F3421401F01F0674
:10137000012707FA06F5012C01D10C3004E0022CFC
:1013800001D1103000E014301AB107682F43076014
:1013900002E00768AF430760F0BD00002DE9F047A9
:1013A00086B005460E460024A24600BFA14600278F
:1013B000B08900B100BF2F462C8A4CF6FF70044064
:1013C000F08804432C82AC894EF6F3100440B088B8
:1013D00031890843718908430443AC81AC8A4FF6D4
:1013E000FF400440B0890443AC8201A8FFF754FDDC
:1013F0001F48874202D1DDF810A001E0DDF80CA003
:10140000A88900F4004040B10AEBCA0000EB0A10C2
:1014100031684900B0FBF1F807E00AEBCA0000EBC5
:101420000A1031688900B0FBF1F86420B8FBF0F0D5
:1014300004012009642101FB1089A88900F40040FF
:1014400040B1322000EBC900B0FBF1F000F0070022
:10145000044308E0322000EB09106421B0FBF1F0F6
:1014600000F00F0004432C8106B0BDE8F0870000B7
:101470000038014001468888C0F308007047C1F376
:1014800008028280704700BFFEE7000000B587B009
:1014900001210420FFF7E0FC01218803FFF7DCFCB9
:1014A00018208DF81B004FF40070ADF818000320D1
:1014B0008DF81A0006A92048FFF7A5FB04208DF837
:1014C0001B000002ADF8180003208DF81A0006A9D1
:1014D0001948FFF798FB4FF4E13002900020ADF877
:1014E0000C00ADF80E00ADF810000C20ADF81200A5
:1014F0000020ADF8140002A91048FFF74FFF252087
:101500008DF8040001208DF805008DF806008DF897
:10151000070001A8FFF750FC012240F225510748BF
:10152000FFF716FF01210548FFF7F9FE40210348A8
:10153000FFF7ECFE07B000BD000801400038014095
:101540000FB4054B10B503A9044A029800F018F82F
:1015500010BC5DF814FB0000D51600084800002000
:1015600002E008C8121F08C1002AFAD1704770476C
:10157000002001E001C1121F002AFBD170470000CA
:101580002DE9FF4F89B09B460446002506E025283B
:101590000BD05A460B999047641C6D1C207800288C
:1015A000F5D10DB02846BDE8F08F0027B8460122DE
:1015B000474900E0074314F8013F203B02FA03F0DB
:1015C0000842F7D120782E2819D114F8010F47F0DE
:1015D00004072A280ED06FF02F022078A0F13001E6
:1015E00009290CD808EB880102EB410100EB010846
:1015F000641CF2E70A98641C50F8048B0A90207867
:101600000028CED0642808D0692806D075281ED0BE
:101610005A460B9990476D1C58E00A994FF00A09F9
:1016200001C90A91002802DA40422D2102E0390561
:1016300004D52B218DF82010012103E0F90704D0F7
:101640002021F7E78A4608AE0DE00021FAE70A9963
:101650004FF00A0901C90A91F7E74946FEF772FF00
:10166000303106F8011D0028F7D1ADEB060000F17E
:101670002009780701D44FF00108C84502DDA8EB26
:10168000090000E000208046002706E008A85A462E
:10169000C05D0B9990476D1C7F1C5745F6DB04E03D
:1016A00030205A460B9990476D1CB8F10001A8F103
:1016B0000108F5DC05E016F8010B5A460B99904736
:1016C0006D1CB9F10001A9F10109F4DC641C65E7A6
:1016D0000928010070B504460D46E1B20548FFF740
:1016E000CEFE00BF40210348FFF725FE0028F9D0B9
:1016F000204670BD0038014008B5FFF719FDFFF71F
:10170000B5FC4FF400611448FFF70AFB4FF4805119
:101710001148FFF705FB0020012302460F49009006
:10172000FFF754F808211120FEF7E8FF13E00C48FA
:101730000078012804D0022805D0032809D105E04B
:1017400000F0B4FC06E000F053F903E000F0FCFA0E
:1017500000E000BF00BFEAE70008014000002440AD
:101760001500002010B5FFF781FCFFF791FC052064
:10177000FFF7F0FCFFF7A4FC0520FFF7EBFCFFF7F9
:10178000B7FC0520FFF7E6FCFFF78AFC0520FFF712
:10179000E1FC10BD2DE9F047FFF75EFCFFF778FC98
:1017A000FFF78EFCFFF7A4FCFFF77AFC4FF4C8703C
:1017B000FFF7D0FC0220FFF7CFFA00B25F490880A4
:1017C0000846B0F900105EA0FFF7BAFE5B48B0F91A
:1017D00000005F490880FFF7C5FF4FF4FA70FFF77C
:1017E000B9FC0220FFF7B8FA00B254490880084655
:1017F000B0F90000574908805048B0F9001056A0D1
:10180000FFF79EFEFFF73CFCFFF752FC4FF496708B
:10181000FFF7A0FC0020FFF79FFA00B252490880B2
:101820000A20FFF797FCFFF73BFCFFF751FC4FF452
:101830008C70FFF78FFC0020FFF78EFA00B24B4947
:1018400008804949B1F90010484AB2F90020881AC5
:10185000FEF7EDFD05464548B0F90000FEF7E7FD4F
:1018600006462946FEF7C4FC04464149FEF78EFCB5
:101870004049086008460068FEF7F3FD044621462B
:101880003DA0FFF75DFE0A20FFF764FCFFF700FCB8
:101890007820FFF75FFC0020FFF75EFA00B23349C3
:1018A00008800A20FFF756FCFFF70AFCDC20FFF750
:1018B00051FC0120FFF750FA00B233490880084676
:1018C000B0F90000FEF7B3FD8246FEF702FE0646C1
:1018D0004FF066322D4BFEF7C9FC044600222C4B1C
:1018E000FEF736FD8046FEF707FE2A4908600A200B
:1018F000FFF730FCFFF7F4FBC820FFF72BFC0120BB
:10190000FFF72AFA00B2204908803220FFF722FCB4
:101910001D48B0F90000212190FBF1F42046FEF7AC
:1019200086FD1D49086008460068FEF79AFD0446DA
:1019300021461AA0FFF704FEBDE8F087180000203A
:101940006E312E76616C3D2564FFFFFF00000000C4
:10195000380000203A0000206E322E76616C3D2562
:1019600064FFFFFF00000000280000202A00002084
:101970000060EA451C0000206E302E76616C3D252B
:1019800064FFFFFF000000002C00002066664A3F55
:101990000070974034000020240000206E332E7623
:1019A000616C3D2564FFFFFF0000000010B5FFF7EC
:1019B000D9FEFFF795FB4FF41670FFF7CBFB012024
:1019C000FFF7CAF900B2084908800A20FFF7C2FBF6
:1019D0000548B0F90000212190FBF1F42046FEF704
:1019E00026FD0249086010BD2C00002024000020C4
:1019F0002DE9F047FFF730FBFFF74AFBFFF760FBED
:101A0000FFF776FBFFF74CFB4FF4C870FFF7A2FB24
:101A10000220FFF7A1F900B2844908800846B0F916
:101A2000001083A0FFF78CFD85A0FFF789FDFFF76D
:101A300099FE4FF4FA70FFF78DFB0220FFF78CF947
:101A400000B27A4908800846B0F9001082A0FFF77A
:101A500077FDFFF715FBFFF72BFB4FF4C870FFF77F
:101A600079FB0020FFF778F900B27F4908807F48B2
:101A70000078022805D10846B0F900107CA0FFF7D5
:101A80005FFD0A20FFF766FBFFF70AFBFFF720FB6D
:101A90007BA0FFF755FD4FF49670FFF75BFB00202E
:101AA000FFF75AF900B27D49088070480078022893
:101AB00005D10846B0F9001079A0FFF741FD6A4949
:101AC000B1F90010754AB2F90020881AFEF7AFFC90
:101AD00005467248B0F90000FEF7A9FC0646294603
:101AE000FEF786FB04467249FEF750FB7149086019
:101AF00008460068FEF7B5FC044621466EA0FFF7D5
:101B00001FFD0A20FFF726FBFFF7C2FA7820FFF738
:101B100021FB0020FFF720F900B2604908800A206D
:101B2000FFF718FBFFF7CCFADC20FFF713FB0120CF
:101B3000FFF712F900B2644908800846B0F90000C6
:101B4000FEF775FC8246FEF7C4FC06464FF066328F
:101B50005E4BFEF78BFB044600225D4BFEF7F8FB65
:101B60008046FEF7C9FC5B490860404800780228BF
:101B700005D15548B0F9001057A0FFF7E1FC0A2045
:101B8000FFF7E8FAFFF7ACFAC820FFF7E3FA012005
:101B9000FFF7E2F800B24C4908803220FFF7DAFA8A
:101BA00032480078022805D14748B0F900104EA00D
:101BB000FFF7C6FC4448B0F90000FEF738FC0746C2
:101BC0004D49FEF7E3FA06464C49FEF711FB054680
:101BD000404801682846FEF70BFB04464749FEF7DC
:101BE00007FB4749086047A0FFF7AAFC3648B0F951
:101BF0000000212190FBF1F42046FEF718FC494932
:101C000008603F480068FEF72CFC0446214646A0C9
:101C1000FFF796FC43480068FEF723FC0446214684
:101C200045A0FFF78DFCBDE8F087000018000020FC
:101C30006E392E76616C3D2564FFFFFF00000000C9
:101C40007431342E7478743D22D6B1C1F7B9A4D75B
:101C5000F722FFFFFF0000006E362E76616C3D25F7
:101C600064FFFFFF00000000280000201500002096
:101C70006E332E76616C3D2564FFFFFF000000008F
:101C80007431342E7478743D22BDBBC1F7CAE4C8E8
:101C9000EBB2C9D1F922FFFFFF0000002A000020AB
:101CA0006E352E76616C3D2564FFFFFF000000005D
:101CB0000060EA451C0000206E302E76616C3D25E8
:101CC00064FFFFFF000000002C00002066664A3F12
:101CD00000709740340000206E382E76616C3D25F0
:101CE00064FFFFFF000000006E342E76616C3D251E
:101CF00064FFFFFF000000000040494400007A44F8
:101D0000200000207431342E7478743D22BDBBC194
:101D1000F7CAE4B3F6B2C9D1F9B9A4D7F722FFFFE5
:101D2000FF000000240000206E312E76616C3D25FE
:101D300064FFFFFF000000006E322E76616C3D25CF
:101D400064FFFFFF0000000010B5CCB0FFF722FDDC
:101D50000F244FF48C72774906A8FEF705FA142277
:101D6000754901A8FEF700FA74480068FEF779FB90
:101D700002907348B0F9000003907248B0F9000077
:101D8000049071480068FEF76CFB059040F6FC017A
:101D90000398884226DC40F634010398884221DB10
:101DA0006A490298884205DB69490298884201DC49
:101DB00008246FE042F228310298884206DB42F69E
:101DC000F8210298884201DC092463E040F6FC0116
:101DD000029888425EDB40F628210298884259DC4E
:101DE0000A2457E004980A2811DA0298B0F5AA6F7D
:101DF00050DA0298B0F5966F4CDD0598192804DD8D
:101E00000598242801DA072444E0022442E040F245
:101E10001A410498884205DD0498B0F5966F01DAFE
:101E2000012437E00498B0F5486F33DD40F6746163
:101E3000049888422EDA40F24C410298884206DD2E
:101E400040F214510298884201DA052422E040F65B
:101E500092110298884206DD40F6142102988842C9
:101E600001DA062416E042F210710298884206DD7B
:101E700042F6EC410298884201DA03240AE043F278
:101E8000C8210298884205DD43F220510298884219
:101E900000DA002421462FA0FFF752FB0F2C45D279
:101EA000DFE804F0080C1014181C2024282C30340F
:101EB000383C40002BA0FFF743FB38E02EA0FFF793
:101EC0003FFB34E031A0FFF73BFB30E034A0FFF7ED
:101ED00037FB2CE037A0FFF733FB28E03BA0FFF7F0
:101EE0002FFB24E03FA0FFF72BFB20E043A0FFF7F0
:101EF00027FB1CE047A0FFF723FB18E04AA0FFF7F1
:101F00001FFB14E04DA0FFF71BFB10E050A0FFF7F4
:101F100017FB0CE054A0FFF713FB08E058A0FFF7F5
:101F20000FFB04E05CA0FFF70BFB00E000BF00BF6D
:101F30004CB010BDFC210008142300081C00002038
:101F4000380000203A0000202400002020BF0200BA
:101F5000503403006E342E76616C3D2564FFFFFF24
:101F60000000000074312E7478743D225231206FCD
:101F700070656E22FFFFFF0074312E7478743D226D
:101F80005232206F70656E22FFFFFF0074312E7495
:101F900078743D225233206F70656E22FFFFFF0080
:101FA00074312E7478743D225234206F70656E2225
:101FB000FFFFFF0074312E7478743D22523120737C
:101FC000686F727422FFFFFF0000000074312E74EE
:101FD00078743D2252322073686F727422FFFFFFC3
:101FE0000000000074312E7478743D225233207347
:101FF000686F727422FFFFFF0000000074312E74BE
:1020000078743D2252342073686F727422FFFFFF90
:102010000000000074312E7478743D224331206F2B
:1020200070656E22FFFFFF0074312E7478743D22BC
:102030004332206F70656E22FFFFFF0074312E74F3
:1020400078743D224333206F70656E22FFFFFF00DE
:1020500074312E7478743D22433120646F75626C44
:102060006522FFFFFF00000074312E7478743D225A
:10207000433220646F75626C6522FFFFFF00000031
:1020800074312E7478743D22433320646F75626C12
:102090006522FFFFFF00000074312E7478743D222A
:1020A0006661696C656422FFFFFF000038B53A483D
:1020B0000078012818D139A0FFF742FA4FF47A705E
:1020C0003949086008460068FEF7BAF9044600205E
:1020D0000123024600902046FEF778FBC820FFF758
:1020E00039F800202C4908702F4800682F49884291
:1020F0000FDB0020284908702B480068FEF7A0F984
:10210000044600200123024600902046FEF75EFBB5
:1021100038BDFFF74BFC26480068FEF7A2F90446DD
:10212000214624A0FFF70CFA21480068FEF799F930
:102130000446214623A0FFF703FA1B48016825A0A7
:10214000FFF7FEF91848006800F57A701649086034
:1021500008460068FEF774F9044600200123024691
:1021600000902046FEF732FB4FF47A70FEF7F2FF44
:102170001C490F480068FEF7DBF90AD21A480078BC
:1021800038B90120184908700748016817A0FFF7FF
:10219000D7F900BFBCE7000040000020636C652059
:1021A000322C30FFFFFF00003C000020E0930400D1
:1021B000240000206E312E76616C3D2564FFFFFF08
:1021C0000000000061646420322C302C2564FFFF85
:1021D000FF0000006E322E76616C3D2564FFFFFF2C
:1021E0000000000000008642410000206E302E7684
:1021F000616C3D2564FFFFFF00000000000000004F
:10220000F9330000F20D0000100E00000500000080
:1022100001000000460500006B0400006A04000095
:102220001A00000002000000E204000000000000AC
:10223000000000000400000003000000CC290000A2
:10224000F20D0000FB0D000005000000040000007E
:10225000E02E0000200D0000260D0000050000000B
:102260000500000000050000F20D0000F90D00005F
:102270000500000006000000D6090000100E000056
:102280001F0E00000500000007000000FD04000014
:102290000000000000000000200000000800000016
:1022A000400D0300A8080000AC0800000500000075
:1022B0000900000010270000AC080000AC08000076
:1022C000050000000A00000088090000AC080000BA
:1022D000500A0000050000000B000000600900002B
:1022E000AC080000C4090000580000000C00000009
:1022F00060090000AC080000280A00005800000037
:102300000D00000060090000AC080000600900003A
:10231000580000000E000000000000000000000057
:10232000000000000000000048230008000000201A
:102330004C00000060150008942300084C000020A9
:102340001C040000701500080000000001020304D6
:10235000010203040607080902040608000201003E
:10236000000000000000000000000000000000006D
:10237000000000000000000000000000000000005D
:1023800000000000E8030000000000000000000062
:042390000000000049
:0400000508000131BD
:00000001FF
