:020000040800F2
:10000000403F0020A9010008A7340008053300087C
:10001000A534000835170008413900080000000029
:10002000000000000000000000000000AB340008E9
:10003000E917000800000000A9340008AD340008EA
:10004000C3010008C3010008C3010008C301000880
:10005000C3010008C3010008C3010008C301000870
:10006000C3010008C3010008C3010008C301000860
:10007000C3010008C3010008C3010008C301000850
:10008000C3010008C30100080116000800000000B9
:10009000000000000000000000000000C301000894
:1000A000C3010008C3010008C3010008C301000820
:1000B000C3010008C3010008C3010008C301000810
:1000C000C3010008C3010008C3010008C301000800
:1000D000C301000835390008C30100080000000012
:1000E000C3010008C3010008C301000800000000AC
:1000F000000000000000000000000000C301000834
:1001000000000000C3010008C3010008C30100088B
:1001100000000000000000000000000000000000DF
:1001200039170008C3010008C3010008C301000813
:10013000C3010008000000000000000000000000F3
:10014000000000000000000000000000C3010008E3
:10015000C3010008C3010008C3010008C30100086F
:10016000C3010008C30100080000000000000000F7
:10017000000000000000000000000000000000007F
:1001800000000000C30100080000000000000000A3
:10019000C3010008DFF80CD000F02EFB0048004738
:1001A000953B0008403F002006488047064800472E
:1001B000FEE7FEE7FEE7FEE7FEE7FEE7FEE7FEE717
:1001C000FEE7FEE745350008950100082DE9F05FE0
:1001D0000546002092469B468846064681464024B6
:1001E0001BE0284641464746224600F010FA534697
:1001F0005A46C01A914110D311461846224600F0C3
:10020000F7F92D1A67EB01084F462246012000211D
:1002100000F0EEF917EB00094E41201EA4F1010495
:10022000DFDC484631462A464346BDE8F09FD2B25D
:1002300001E000F8012B491EFBD270470022F6E7CF
:1002400010B513460A4604461946FFF7F0FF20464C
:1002500010BDF0B480EA0102D40F4200B2EB410FAE
:1002600002D20246084611464A0042D0C30DDDB212
:10027000C1F3C752AD1A202D35DAC1F3160141F48E
:10028000000204B15242C5F1200602FA06F12A41E9
:100290001044B3EBD05F23D0C4B1012DA0EBC35009
:1002A00009DCF0BC4FF0004202EAC352DBB200F5B9
:1002B000000000F0C5B9400000F1807000EBC350B1
:1002C000A0F1807040EAD170490009E0490841EA94
:1002D000C071A0EBC35000F50000400800EBC35014
:1002E000F0BC00F0A4B96142012202EB4101001B05
:1002F000F6E7F0BC704781F00041AAE780F00040CB
:10030000A7E780EA010210B502F00043400022D0C6
:100310004A001FD0010E01EB1261C0F35600C2F378
:10032000560240F4000042F40002A0FB0220000448
:100330007F39140400D0401C50EA124001D4400020
:10034000491EC2B20C0604EBD010401C4008802AA3
:1003500002D003E0002010BD20F00100002900DAE7
:100360000020184310BD2DE9FE4F81EA030404F07C
:10037000004421F0004100944FF0000B23F00043B3
:1003800050EA01045ED052EA03045BD0C3F30A547E
:10039000C1F30A552C44A4F2F3340194A0FB025497
:1003A000C1F3130141F48011C3F3130343F4801329
:1003B00001FB024400FB034E840A970A44EA81547D
:1003C00047EA8357A4FB076802958D0A05FB07855A
:1003D0004FEA932C04FB0C542705029D4FEA065864
:1003E00047EA1637B5EB08056EEB070C870E920E41
:1003F00047EA811742EA8312A7FB0201B6EB0B0121
:1004000064EB00042B0D43EA0C335E1844EB1C50E4
:10041000DA465146E7FB0201C5F313044FEA0B33FA
:1004200043EA14534FEA0432019C43EA0603A4F161
:100430000C040294009CCDE900B400F03EF903B036
:10044000BDE8F08F00200146F9E72DE9F04D81EA83
:10045000030404F0004B21F0004514464FF0000A5D
:1004600023F0004150EA050220D054EA01021DD0D9
:10047000C5F30A570246C5F31303C1F31300C1F3D2
:100480000A5640F4801543F48013A7EB0608101BAE
:10049000D64608F2FD3873EB050002D308F10108D7
:1004A00001E092185B41B8F1000F03DA0020014629
:1004B000BDE8F08D00204FF48011064684460EE022
:1004C000171B73EB050705D3121B63EB05030643EC
:1004D0004CEA010C49084FEA300092185B4150EA9F
:1004E0000107EDD152EA030012D082EA040083EA48
:1004F0000501084305D0101BAB4106D201220023A1
:1005000006E000224FF0004302E06FF001025310BA
:100510001AEB06004CEB085110EB0A0041EB0B0103
:10052000BDE8F04D00F0BAB870B5C1F30A5201F061
:1005300000450024C1F3130140F2FF3341F4801160
:100540009A4201DA002070BD40F233439A42A2F28F
:10055000334203DC524200F05AF800E090402C4352
:10056000F1D0404270BD00F0004230F000400AD0AF
:10057000C10D01F56071C0F3160042EA0151C208D5
:1005800040071143704700200146704701F00043C7
:1005900030B421F0004150EA010206D00A0DA2F564
:1005A0006072C1F31301002A02DC30BC00207047E6
:1005B000440F44EAC104C100E01830BC00EBC25053
:1005C00000F035B830B50B4601460020202201244A
:1005D00009E021FA02F59D4205D303FA02F5491B11
:1005E00004FA02F52844151EA2F10102F1DC30BD27
:1005F000202A04DB203A00FA02F1002070479140E3
:10060000C2F1200320FA03F3194390407047202AD7
:1006100004DB203A21FA02F00021704721FA02F3AC
:10062000D040C2F12002914008431946704700298A
:10063000A8BF7047401C490008BF20F00100704768
:1006400010B4B0FA80FC00FA0CF050EA010404BFC8
:1006500010BC704749B1CCF1200421FA04F411FA1E
:100660000CF118BF012121430843A3EB0C01CB1D62
:100670004FEA00614FEA102042BF002010BC7047D3
:1006800000EBC35010440029A4BF10BC7047401CAD
:10069000490008BF20F0010010BC704710B5141EBF
:1006A00073F1000408DA401C41F1000192185B412B
:1006B0001A4301D120F0010010BD2DE9F04D924602
:1006C0009B4611B1B1FA81F202E0B0FA80F2203219
:1006D0009046FFF78DFF04460F4640EA0A0041EAC4
:1006E0000B0153465A46084313D0114653EA010002
:1006F00019D0C8F140025046FFF789FF05460E4663
:10070000504659464246FFF773FF084305D0012083
:1007100004E020463946BDE8F08D0020054346EA56
:10072000E0762C4337430A986305E40AA0EB0800FF
:100730000022FD0A44EA47540A3002D5002001464F
:10074000E9E7010510196941DDE90845001969412A
:10075000BDE8F04DA2E72DE9F04D00231A461B1A23
:100760008A4103DB00200146BDE8F08DC1F30A5247
:10077000C1F3130141F480154FF0000BD10702D1F2
:1007800000186D41521E0027044640F2FF11384602
:1007900001EB620A3E468046024600204FF480117B
:1007A000FFF735FFC2197141BB1846EB0100B4EBEE
:1007B000030C75EB000C04D3E41A65EB0005174637
:1007C0000E46241908F101006D4180463428E3DD0E
:1007D000F91946EB0600091BA84103D24FF0FF327E
:1007E000134601E0002213461BEB070046EB0A51BB
:1007F000BDE8F04DFFF752BF064C074D06E0E0683C
:1008000040F0010394E8070098471034AC42F6D357
:10081000FFF7C4FC64C4000884C400082DE9F04755
:1008200001264FEA42084FEA51090024002506EB51
:10083000510C6FF0010606EB510E00BFADB2660021
:10084000AC4228D250F8267050F83520E900043127
:1008500040F8262040F8357046F0010250F822A0FA
:10086000475840F8227040F801A004EB0C0105EB5A
:100870000C0750F831A050F8372040F83120C9005B
:1008800040F837A0FF000431043750F801A0C259E6
:10089000425040F807A000EB86014D448A6850F8AA
:1008A00035608E6040F83520ED000435CA68465941
:1008B000CE604251A21C03EB080194B21D880B4686
:1008C000744588BFBDE8F087B8E7B0B582B00C4684
:1008D00005468389426801888078012805D1286906
:1008E0000090204600F078FB02E0204600F0C0F8BF
:1008F000E87801281CBF02B0B0BDAB68EA8929883E
:10090000204602B0BDE8B040FFF788BF44F2644C17
:10091000FF29C0F6000CC0F804C00180C3708270CB
:1009200043F662424FF0FF03C0F600020DDDB1F561
:10093000807F13D0B1F5805F15D0B1F5806F21D1E4
:1009400006324FF06A51042317E010290FD04029D6
:1009500018D17E324FF0725140230EE01E324FF01C
:100960006E51102309E04FF06651012305E002F5B6
:10097000FF724FF076514FF48073C381838100235F
:100980000161826058B270472DE9F04381B005469D
:10099000002090460C46B0EB920F4CD04FEA9800E6
:1009A000C0F10009D5E900070146FFF7AAFC064699
:1009B00038463946FFF7A5FC01463046FFF749FCAB
:1009C00003F020F92060D5E902060146FFF799FC03
:1009D000074630463146FFF794FC01463846FFF79C
:1009E00038FC03F00FF96060D5E904060146FFF713
:1009F00088FC074630463146FFF783FC01463846FF
:100A0000FFF727FC03F0FEF8A060D5E906060146D3
:100A1000FFF777FC074630463146FFF772FC014688
:100A20003846FFF716FC03F0EDF8E060103420358F
:100A300019F10109B6D118F0030016D0474200BFE2
:100A4000D5E900060146FFF75CFC8046304631469A
:100A5000FFF757FC01464046FFF7FBFB03F0D2F8D7
:100A600044F8040B08350137EAD101B0BDE8F08342
:100A70002DE9F04FA3B0834600200C911446049357
:100A80001E9206922292A0EB910718018908CDF8D8
:100A900008B00B90D800019105910A9003EB430038
:100AA000C0000990C80021900801209001EB41008E
:100AB000C0001F90CDE91C472098DBF804A05BF82C
:100AC00000108046DBF80000CDF84CA0179116907E
:100AD000FFF7BFFB21991F9A074619905BF80100A9
:100AE0000E465BF80210154615901491FFF7B1FB06
:100AF000814638464946FFF7ACFB0BEB05014F68D2
:100B00001B910BEB06014E680F910BEB08011A913C
:100B10004968119710961291D4E90082CBF8000031
:100B200050460D92FFF795FB054630463946FFF7D4
:100B300090FB044628462146FFF78BFBCBF80400C8
:100B400019984946FFF7D7FB064628462146FFF786
:100B5000D2FB044630464146C246FFF7D2FB0D9F0A
:100B6000054620463946FFF7CCFB01462846FFF7ED
:100B700070FB2299DDF878800A684968189219910B
:100B8000D8E900910E9121994BF801005046214679
:100B9000FFF7B7FB044630463946FFF7B2FB014684
:100BA0002046FFF7A8FB0F994860DDE91601FFF723
:100BB000A2FB16900446DDE91410FFF79CFB17908A
:100BC0000546DDE91210FFF796FB15900646DDE9B4
:100BD0001001FFF790FB074620463946FFF739FB27
:100BE000044630462946FFF786FB0546204649461F
:100BF0004E46FFF786FBDDF8389082462846494688
:100C0000FFF77FFB01465046FFF723FB20994BF887
:100C1000010028463146FFF774FB05462046494649
:100C2000FFF76FFB01462846FFF765FB1A994860FE
:100C300016983946FFF75FFB814615981799FFF71D
:100C400008FB189C054648462146FFF75AFB199FAA
:100C5000064628463946FFF754FB01463046FFF763
:100C6000F8FA1F994BF8010028462146FFF749FB87
:100C7000054648461C9C3946FFF743FB014628467B
:100C8000FFF739FB1B991D9F0BF1080B48600B9870
:100C90002299013704440A9880440998CDF8788055
:100CA000014422917FF406AF0C981428C0F02F81E4
:100CB000059B00BF4FF0FF309908DDF80880DF008A
:100CC000002500220F9300EB9300CC000E0103914E
:100CD000089004988000049080B2079001EB4100D6
:100CE000CDE921464FEAC009CDE90D97DDF818C0DE
:100CF00002EB420E09925CF83E105CF8320014914F
:100D0000110115905CF80100043113905CF80100AA
:100D1000D100043112905CF8010011904FEACE002E
:100D200004305CF800001090CDE90A85209558F851
:100D30000610D8F80000D8F804501C911D901995A1
:100D4000FFF787FA824658F8040058F809101B90FC
:100D50001A91FFF77EFA834650465946FFF779FA13
:100D600008EB090108EB04094E681F912299D9F894
:100D700004704144189617971E914968C8F80000FE
:100D800028461691FFF765FA044638463146FFF7C4
:100D900060FA064620463146FFF75BFAC8F80400C1
:100DA00050465946FFF7A7FA824620463146FFF7DC
:100DB000A2FA139F044651463846FFF7A2FA129D45
:100DC000064621462846FFF79CFA01463046FFF7C3
:100DD00040FA219948F8010038462146FFF791FA78
:100DE000044628465146FFF78CFA01462046FFF795
:100DF00082FAC9F80400DDE91C10FFF77CFA1C90A8
:100E00000446DDE91A10FFF776FA05461D90199899
:100E10001699FFF770FA8146DDE91701FFF76BFAC3
:100E2000074620463946FFF714FA04464846294645
:100E3000FFF761FADDF854A0054621465046FFF75A
:100E400060FADDF844B0064629465846FFF759FADD
:100E50003146FFF7FEF9229948F80100504629462D
:100E6000FFF74FFA054658462146FFF74AFA014672
:100E70002846FFF740FA1E9948601C983946FFF74C
:100E80003AFA1D9982464846DDF83490FFF7E1F9B9
:100E9000149F054651463846FFF733FA109C064624
:100EA00029462046FFF72DFA3146FFF7D2F948F8D8
:100EB000090038462946FFF724FA054620465146E0
:100EC000219CFFF71EFA01462846FFF714FA229EDE
:100ED000DDE90E73DDE91F1548600C981D44B84428
:100EE0008542FFF423AF0798099A0B9DDDF828800F
:100EF00002440898013508F1080885427FF6F6AEED
:100F00000599039B8808132905903FF6D3AE0198F5
:100F1000029C4042229025686068A6686169E76883
:100F20001D951F9021961E91FFF7E5F9A169804656
:100F300030462091FFF7DFF9814640464946FFF7EA
:100F400088F9E669E061284621691C91FFF7D3F929
:100F5000824638463146FFF7CEF983465046594619
:100F6000FFF7C9F9A06140464946FFF7C4F960613F
:100F700050465946FFF76DF92061DDE91E10FFF775
:100F800068F9804638463146FFF763F90546404622
:100F90002946FFF7B0F9E060DDE91C10FFF759F9C9
:100FA0000646DDE92010FFF754F90746304639467A
:100FB000FFF7A1F9A06040462946FFF74AF96060B3
:100FC00030463946FFF745F9206022982034013039
:100FD000A0D123B0BDE8F08F2DE9F04FA3B0834638
:100FE00000200B91144603931D9205922292A0EBD0
:100FF000910718018908CDF804B00C90D800009131
:1010000004910A9003EB4300C0000990C8002090AF
:1010100008011F9001EB4100C0001E90CDE91B4765
:101020001F98DBF800205BF800108146DBF8040015
:101030001692219010461591FFF70BF920991E9AF0
:1010400080465BF801000E465BF8021015461490CE
:101050001391FFF7FEF8824640465146FFF7F9F834
:101060000BEB05014F681A910BEB06014E680F91CF
:101070000BEB090119914968119712961091D4E967
:101080000092CBF8000021980D92FFF7E2F8054698
:1010900030463946FFF7DDF8044628462146FFF77B
:1010A000D8F8CBF8040040465146FFF724F906462D
:1010B00028462146FFF71FF9044630464946FFF708
:1010C00020F90D9F054620463946FFF71AF90146DB
:1010D0002846FFF710F92299DDF874800A684968FC
:1010E00017921891D8E900A10E9120994BF80100B0
:1010F00048462146FFF705F9044630463946FFF7D2
:1011000000F901462046FFF7A4F80F994860DDE991
:101110001510FFF7F0F815900446DDE91310FFF7FE
:10112000EAF80546169021981099FFF7E4F8219007
:101130000746DDE91110FFF7DEF806462046314686
:10114000FFF7D9F8044638462946FFF782F80546E6
:10115000204651465746FFF7D4F8DDF838908246CE
:1011600028464946FFF7CDF801465046FFF7C3F839
:101170001F994BF8010028463946FFF7C2F805468B
:1011800020464946FFF7BDF801462846FFF761F8BB
:101190001999486015983146FFF75BF88146219808
:1011A0001699FFF7A8F8179C054648462146FFF711
:1011B000A8F8189F064628463946FFF7A2F80146C8
:1011C0003046FFF798F81E994BF801002846214653
:1011D000FFF797F8054648461B9C3946FFF791F8FC
:1011E00001462846FFF735F81A991C9F0BF1080BAA
:1011F00048600C982299013704440A988044099861
:10120000CDF87480014422917FF408AF0B98142824
:10121000C0F02E81049B00BF4FF0FF309908DDF82D
:101220000490DF000025002400EB93000E010291E2
:101230000790C8000D9003988000039080B206903C
:1012400001EB4100CDE90E7322964FEAC008CDF8BC
:10125000308000BF059A04EB440C089452F83C100F
:1012600052F8340014912101159050580431139014
:101270005058E10004311290505811904FEACC00C0
:10128000043010581090CDE9099500BF59F80610A8
:10129000D9F80000D9F80440DDF834A021951D915B
:1012A0001E901A94FEF7D5FF59F8081005461690BF
:1012B00059F80A001C901B91FEF7CBFF8346284685
:1012C0005946FEF7C6FF09EB080109EB0A084F680B
:1012D00020912299D8F804604944179719961F91D4
:1012E0004968C9F8000020461891FEF7B2FF05468C
:1012F00030463946FEF7ADFF044628462146FEF744
:10130000A8FFC9F8040016985946FEF7F4FF834673
:1013100028462146FEF7EFFF139F044659463846FC
:10132000FEF7EFFF129E054621463046FEF7E9FF25
:1013300001462846FEF7DFFF49F80A0038462146F5
:10134000FEF7DFFF044630465946FEF7DAFF214636
:10135000FEF77FFFC8F80400DDE91D10FEF7CBFFA4
:101360001D900446DDE91B10FEF7C5FF05461E90E3
:101370001A981899FEF7BFFF824619981799FEF739
:10138000BAFF074620463946FEF7B5FF04465046E9
:101390002946FEF75EFFDDF854B005462146584663
:1013A000FEF7AFFFDDF84480064629464046FEF7CB
:1013B000A8FF01463046FEF79EFF229949F801003A
:1013C00058462946FEF79DFF054640462146FEF752
:1013D00098FF01462846FEF73CFF1F9948601D987C
:1013E0003946FEF736FF1E9983465046DDF83080B9
:1013F000FEF781FF149F054659463846FEF781FFE8
:10140000109C064629462046FEF77BFF01463046E3
:10141000FEF771FF49F8080038462946FEF771FFCC
:10142000054620465946FEF76CFF01462846FEF762
:1014300010FF20AEDDE90E7362CE1D44B944486052
:101440000B988542FFF422AF0698089C0A9DDDF8B0
:10145000249004440798013509F1080985427FF674
:10146000F9AE0499029B8808132904903FF6D4AE84
:101470000098019C2C9E4042229025686068A768D5
:101480006169D4F80CB01D951F9021971E91FEF74D
:1014900032FFA169804638462091FEF72CFF814635
:1014A00040464946FEF727FF3146FEF72AFFE76927
:1014B000E061284626693146FEF71DFF8246584600
:1014C00039465D46FEF717FF834650465946FEF7FC
:1014D000C0FE2C99FEF715FFA06140464946FEF775
:1014E000B8FE2C99FEF70DFF606150465946FEF795
:1014F00002FF2C99FEF705FF2061DDE91E10FEF7C3
:10150000A8FE804628463946FEF7A3FE054640461B
:101510002946FEF7F0FE2C99FEF7F3FEE0601D98D9
:101520003146FEF796FE0646DDE92010FEF791FEF5
:10153000074630463946FEF7DEFE2C99FEF7E1FEFF
:10154000A06040462946FEF784FE2C99FEF7D9FE9E
:10155000606030462C9E3946FEF77BFE3146FEF732
:10156000D0FE206022982034013085D123B0BDE820
:10157000F08F10B50146806B026C12F0500F05D051
:10158000026CD20626D500F0B0FA10BD016C41F411
:101590000071016401688A6812F0405F17D1027E11
:1015A000AAB9CA6A12F4700F02D08A6852050ED422
:1015B0004A6822F020024A60016C21F480710164C3
:1015C000016CC90403D4016C41F00101016400F015
:1015D000B5F910BD806BC26CBDE8104008461047DD
:1015E00010B5806B40210164416C41F004014164FD
:1015F00000F07BFA10BD10B5806B00F075FA10BDDD
:10160000014800F073BA00000C3A0020464910B5BA
:101610004A6822F440324A604A6843681A434A6082
:1016200001684A6822F480724A6001684A68036966
:1016300042EA03224A6001684A6822F040724A6026
:1016400001684A6883681A434A6001688A6822F41C
:1016500000628A6001688A68C3681A438A60816A86
:101660006FF07062D14201688A6822F070628A600D
:1016700001688A680CD0836A1A438A6001688A68A4
:1016800022F040528A6001688A68C36A1A4301E006
:1016900022F040528A6001688A6822F002028A6061
:1016A00001688A68037E42EA43028A6090F820104B
:1016B000002901684A680FD042F400624A6001685C
:1016C0004A6822F460424A6001684A68174C436ADB
:1016D00004EB43331A4301E022F400624A600168DC
:1016E000CA6A22F47002CA620168CA6A838B104C0B
:1016F00004EB03531A43CA6201688A6822F4007239
:101700008A6001688A6890F8303042EA43228A6031
:1017100001688A6822F480628A6001688A68406988
:1017200042EA8020886010BD0023014000E0FFFFF6
:101730000000F0FFFEE70000014800F011BC0000CF
:10174000543A002001681823CAB2103AB2FBF3F2EF
:10175000054B6FF30901032A9B5CC36500D9091D82
:101760008165084670470000423C000810B50146FC
:1017700000208B698A6A4FF0C07453B1B3F5005FE3
:1017800015D072B1012A0CD0022A0AD0032A09D13D
:1017900004E01AB1012A06D0022A03D1C96AC9019C
:1017A00000D5012010BDC96AA142FAD010BD002A9F
:1017B000F7D0012AF2D0022AF3D0032AF3D010BDC9
:1017C00030B50468256825F48025256004686360C9
:1017D0008368402B036803D099600068C26030BD05
:1017E0009A600068C16030BD704772B6FEE770470E
:1017F00078B50024009490F83C20012A19D00122E9
:1018000080F83C200A6807230568092A13D9EE6886
:101810000A3A02EB420293409E43EE600B788A68DC
:101820000A3B03EB43039A400368DD682A43DA600E
:1018300010E0022078BD2E6902EB420293409E43E5
:101840002E610B788A6803EB43039A4003681D6995
:101850002A431A614A681F23072A13D205686E6B50
:10186000521E02EB820293409E436E630B790A88FC
:101870005B1E92B203EB83039A4003685D6B2A43BD
:101880005A6327E005680D2A12D22E6BD21F02EB95
:10189000820293409E432E630B790A88DB1F92B22B
:1018A00003EB83039A4003681D6B2A431A6311E01C
:1018B000EE6A0D3A02EB820293409E43EE620B7990
:1018C0000A880D3B92B203EB83039A400368DD6AFA
:1018D0002A43DA62164B0568144A9D4206D10D6808
:1018E000122D03D1556845F48005556005689D4269
:1018F00018D10B68102B01D0112B13D1536843F46E
:1019000000035360096810290CD10A490A4A096882
:10191000B1FBF2F101EB8101490000E0491E0091A9
:101920000029FBD180F83C40002078BD0023014015
:10193000002001402400002040420F002DE9F0412A
:101940002DED068B544988427DD1084600F076FA89
:10195000524C0022524B104603F1C8014FF48066EE
:10196000C4F8042033F8105021F81050401CB04245
:10197000F8D362604B4ADFED4C0A606831F81030F2
:1019800000EE103A02EBC003401CB8EE400AB04231
:1019900083EC020A6060F0D3424901F54050FEF743
:1019A00094FF324641493F48FEF7EEFF3F4D28681D
:1019B000FEF7D9FD9FED3E8B53EC182BFEF7D3FCC1
:1019C0009FED3D9B53EC192BFEF7CDFC9FED3C1B8F
:1019D00053EC112BFEF7C7FCFEF7D8FD2860012061
:1019E0009FED39ABB0466060666805EB86073868E6
:1019F000FEF7B9FD53EC182BFEF7B5FC53EC192B91
:101A0000FEF7B1FC53EC1A2BFEF7ADFCFEF7BEFD62
:101A1000761C386066604645E6D3A86AFEF7A3FDEB
:101A200095ED140AD5ED1F0A41EC180B20EE000AC3
:101A300000EEA00AD5ED290A00EEA00AD5ED330A82
:101A400000EEA00A00E022E010EE100AFEF78BFD87
:101A500041EC100B01F096FF53EC182B51EC100BDE
:101A6000FEF7F3FC41EC100B9FED191B84ED040B0A
:101A700053EC112BFEF777FCFEF756FDA0600146F4
:101A8000BDEC068B14A0BDE8F04101F05BBFBDECDE
:101A9000068BBDE8F08100000C3A00200000002019
:101AA00030000020F808002000000000F828002086
:101AB0006666666666660A40000000000000303F09
:101AC000000000000000503F000000000000603FE8
:101AD00000000000006AF84078302E76616C3D25E9
:101AE00064FFFFFF000000007047704770B50446B8
:101AF00000680668456816F0020F05F020012AD03C
:101B000049B3216CC90603D4216C41F400712164EE
:101B1000816811F0405F17D1217EA9B9C16A11F423
:101B2000700F02D0816849050ED4416821F0200170
:101B30004160206C20F480702064206CC00403D4C9
:101B4000206C40F0010020642046FFF7F7FE21687A
:101B50006FF01200086016F0040F05F0800132D01B
:101B600089B3206CC00603D4206C40F4005020647C
:101B70002068816811F4401F1ED1816B11F4401F51
:101B800002D08168490517D44168490514D4816899
:101B900011F0405F10D1217E71B9416821F08001C0
:101BA0004160206C20F480502064206CC00503D478
:101BB000206C40F0010020642046FFF718FE2168E9
:101BC0006FF00C00086016F0010F05F040010FD017
:101BD00071B120680068C0070AD0206C40F48030E2
:101BE0002064204600F043F821686FF0010008608F
:101BF00016F0200F05F080610ED000290CD0606C2B
:101C000040F00200606420686FF020050560204607
:101C1000FFF76BFF2068056070BD70B504004FF0E2
:101C2000000503D0206C002610B107E0012070BD34
:101C3000204600F01DF8666484F83C60206CC00605
:101C400010D4206C20F4885040F00200206420461C
:101C5000FFF7DCFC6664206C20F0020040F001001D
:101C6000206400E0012584F83C60284670BD704780
:101C700070B586B0064614216846FEF7DFFA2149A2
:101C8000306888423CD120480025016841F48071C9
:101C90000160006800F4807005901B4814380168EA
:101CA00041F0010101600068694600F00100059003
:101CB000012000900320CDE90105144800F0C2FA8C
:101CC000144C1348C4E900050015A560C4E903508D
:101CD000400060618000A0614011C4E90705204612
:101CE000656200F00DFA08B1FFF77FFDB4630022D2
:101CF00011461220A66300F009FC122000F0F8FB48
:101D000006B070BD0020014044380240000002408F
:101D100010640240543A0020F8B5044600200E46F4
:101D2000009094F83C10012907D0012184F83C1060
:101D300021688B68DB0702D011E00220F8BD8B68B8
:101D400043F001038B603649364B0968B1FBF3F170
:101D500001EB410100E0491E00910029FBD12168FF
:101D60008B68DB0503D58B6823F480738B60216857
:101D70008B68DB0749D0236C40F20165AB4343F429
:101D8000807323644968490505D5216C21F400510D
:101D900041F480512164216CC90404D5616C21F0A7
:101DA0000601616400E0606484F83C00A16B1F4898
:101DB0001D4DC863A16B1E480864A16B1D48C86413
:101DC00021686FF0220008602068416841F080615E
:101DD00041602068816841F4807181602168134608
:101DE00032464C31A06B00F0F5F96868C0062068F7
:101DF00002D01149884210D1816811F0405F0CD1A6
:101E0000816841F08041816007E0206C40F0100063
:101E10002064606C40F0010060640020F8BD0000A8
:101E20002400002040420F000023014073150008E9
:101E3000F7150008E11500080020014010B5044620
:101E4000002094F83C1001290CD0012184F83C10AA
:101E500021688A6822F001028A6021688A68D207B4
:101E600002D01DE0022010BD8A6822F480728A60D0
:101E7000A16B91F83520022A07D1084600F014F82A
:101E800018B1216C41F04001216421684A6822F0B8
:101E900080624A60216C21F4885141F00101216483
:101EA000002184F83C1010BD2DE9F0410446876DF7
:101EB00000F0BEFA064694F835000025022806D048
:101EC0008020606584F834500120BDE8F0812068EE
:101ED000016821F0160101602068416921F080014C
:101EE0004161206C08B9A06C20B12068016821F024
:101EF000080101602068016821F0010101600CE027
:101F000000F096FA801B052807D920206065032081
:101F100084F8350084F83450D7E720680068C0079B
:101F2000EED194F85C103F208840B860012084F81E
:101F3000350084F834500020C7E790F835100229A6
:101F400003D08021416501207047052180F83510BC
:101F50000068016821F00101016000207047000065
:101F60002DE9F84304464FF00009CDF8009063488E
:101F70004FF41651A56D0068B0FBF1F72E6894F888
:101F80005C10082000FA01F131420FD021680A6884
:101F900052070BD50A6822F004020A6094F85C101C
:101FA0008840A860606D40F00100606594F85C10A6
:101FB0004FF0010808FA01F0304208D02168496961
:101FC000090604D5A860606D40F00200606594F8D1
:101FD0005C1004208840304208D0216809688907D5
:101FE00004D5A860606D40F00400606594F85C1052
:101FF00010208840304218D021680968090714D59C
:10200000A86020680168490304D50068000308D56A
:10201000A16C07E00168C90503D4016821F008013B
:102020000160216C09B12046884794F85C1020209B
:102030008840304231D021680968C9062DD5A86092
:1020400094F8350005282068016806D0490347D573
:10205000006800031DD4616C1CE021F016010160D2
:102060002068416921F080014161206C08B9A06CB1
:1020700020B12068016821F00801016094F85C102B
:102080003F208840A86084F8358084F83490216D22
:102090001FE0E16B09B120468847606D00282BD016
:1020A000606DC00714D0052084F8350020680168F1
:1020B00021F0010101600098401C0090B84203D853
:1020C00020680068C007F6D184F8358084F8349021
:1020D000E16C002910D001B02046BDE8F04308476C
:1020E0000168C905D5D4016821F01001016084F8A8
:1020F000358084F83490CCE7BDE8F88324000020D4
:102100002DE9F041044600F093F906465CB1022047
:1021100084F83500002584F834502068016821F0E7
:10212000010101600DE00120BDE8F08100F080F9BF
:10213000801B052805D920206065032084F8350020
:10214000F2E720680068C007F0D1226811682048D3
:102150000140D4E901031843D4E90336334318435B
:1021600063691843A3691843E3691843236A184352
:102170000843616A042903D1D4E90B1319430843C6
:10218000106020684069666A20F0070130460E43FF
:10219000012704280CD1A06A0643E06A40B120461A
:1021A000FFF7E4FA20B14020606584F83570BAE7A3
:1021B000206846612046FFF7C5FA94F85C203F216D
:1021C00091408160656584F835700020ACE70000BF
:1021D0003F8010F02DE9F0410446866D90F8340000
:1021E000002501280DD0012084F8340094F83570C2
:1021F0000020012F07D084F8340002252846BDE8CE
:10220000F0810220FBE7022784F8357060652046E4
:10221000FFF7D6FA94F85C103F208840B060206841
:10222000016841F016010160206C20B1206801684E
:1022300041F0080101602068016841F0010101607E
:10224000DCE700002DE9F84FDFF8B8A100220124F7
:1022500003254FF00F090AF1040BAAF1040E00BF89
:102260000B6804FA02F63340B34273D10F7907F0DA
:102270000307012F01D0022F16D187684FEA4208C9
:1022800005FA08FC27EA0C07D1F80CC00CFA08FC88
:102290004CEA070CC0F808C04768B7430E79C6F38C
:1022A000001696403E4346600E79F643B6070DD0C1
:1022B000C768560005FA06FC27EA0C07D1F808C0E3
:1022C0000CFA06FC4CEA070CC0F80CC00E7906F0BC
:1022D0000306022E10D1D60800EB8608D8F820603D
:1022E00057074FEAD76C09FA0CF7BE430F6907FA94
:1022F0000CF73743C8F8207006684FEA420C05FA1D
:102300000CF7BE430F7907F0030707FA0CF73743C2
:1023100007604E6816F4403F6DD03B4E376847F477
:1023200080473760366822F0030706F4804600963F
:10233000364E07EB060CDCF8086897073F0F09FAE2
:1023400007F826EA0806DFF8C880404503D14FF0B9
:1023500000081EE04FE0DFF8BC80404502D14FF09E
:10236000010816E0DFF8B080404502D14FF00208C6
:102370000FE0DFF8A880404502D14FF0030808E0E5
:10238000DFF89C80404502D14FF0040801E04FF097
:10239000070808FA07F848EA0608CCF80888DAF8C7
:1023A00000605746D1F804C09E435FEACC2C00D5AC
:1023B0001E433E60DBF800605F46D1F804C09E43D8
:1023C0005FEA8C2C00D51E433E60DEF80060774645
:1023D000D1F804C09E435FEA8C3C00D51E433E60AA
:1023E000084F083F3E68D1F804C09E435FEACC3CEA
:1023F00000D51E433E60521C102AFFF431AFBDE8E9
:10240000F88F0000083C0140443802400030014091
:10241000000002400004024000080240000C02409C
:10242000001002400AB1816170470904FBE7000017
:102430000148806870470000180000200248816849
:102440000278114481607047180000200B4810B5D5
:10245000016841F400710160016841F4806101602C
:10246000016841F480710160032000F06FF80F20D3
:1024700000F006F800F024F8002010BD003C0240F7
:1024800070B50D4D04464FF47A712878B1FBF0F029
:102490000A490968B1FBF0F000F00CFB48B9102CB8
:1024A00007D200222146501E00F030F800206C6058
:1024B00070BD012070BD0000180000202400002025
:1024C0000A4808B5016841F480410160006800F4E1
:1024D000804000900548001F016841F08051016074
:1024E000006800F08050009008BD000044380240B1
:1024F000002809DB00F01F02012191404009800003
:1025000000F1E020C0F8001170470000F0B40E4B5D
:102510001B680C46C3F30223C3F10705042D00D941
:102520000425191D072901D2002300E0DB1E012626
:1025300006FA05F1491E214099409E40761E16403C
:102540003143F0BC01F00EBA0CED00E0064900F09A
:10255000070208684FF6FF03184040EA0220034ACA
:1025600010430860704700000CED00E00000FA0521
:102570002DE9F0470E46050065D0DFF81481D8F844
:102580000000F7B200F00700B04207D288F80070F0
:10259000D8F8000000F00700B04254D128683D4C44
:1025A000810712D5400703D5206840F4E050206031
:1025B0002878000703D5206840F460402060206838
:1025C000A96820F0F000084320602878C0072DD0CB
:1025D000304968680839012812D0022813D003282E
:1025E00011D00968890700292DDA216821F003013B
:1025F00001432160FFF71CFF814641F2883A0EE05B
:1026000009688903EFE709688901ECE7FFF710FF24
:10261000A0EB0901514502D90320BDE8F0872068ED
:10262000696800F00C00B0EB810FEFD1D8F8001012
:10263000404601F00701B14207D90770006800F079
:102640000700B04201D00120E7E72878400705D510
:102650002068E96820F4E0500843206028780007EB
:1026600006D52068296920F4604040EAC100206056
:1026700000F038F82168084AC1F30311515CC840E2
:102680000649086006480068FFF7FAFE0020C4E724
:10269000003C0240083802404A3C00082400002068
:1026A0001C0000200448054900680968044AC1F379
:1026B0008221515CC8407047240000200838024045
:1026C0005A3C00080448054900680968044AC1F3F7
:1026D0004231515CC8407047240000200838024055
:1026E0005A3C0008154810B5006810F00C02144858
:1026F00013D01449042A0FD0082A0ED10F4C241FDE
:102700002268236802F03F025B0207D52068C0F30D
:102710008810A0FB010106E0084610BD2168C1F346
:102720008811A1FB00010023FDF750FD2168C1F3D2
:102730000141491C4900B0FBF1F010BD08380240CE
:102740000024F40040787D012DE9F84F04006ED09C
:102750002078DFF84C93C007A9F104054AD009F1AD
:1027600004000168C1F38101012908D00068C0F3A9
:10277000810002280AD1D9F80000400206D5286855
:10278000800337D560680028E1D033E06068B0F599
:10279000803F10D0B0F5A02F286810D020F48030F2
:1027A0002860286820F4802028606068A8B1FFF7BE
:1027B0003FFE06460DE0286840F48030F4E740F420
:1027C00080202860F7E700BFFFF732FE801B6428F7
:1027D00073D828688003F7D50CE0FFF729FE06467A
:1027E00005E000BFFFF724FE801B6428F0D82868AE
:1027F0008003F7D42078DFF8AC8280074FF0000A1E
:102800003ED5A748001D016811F00C0F08D00068E4
:10281000C0F3810002280BD1D9F80000400207D490
:102820002868800716D5E068012800D112E033E15E
:10283000E068B8B10120C8F80000FFF7F9FD0646CE
:1028400005E000BFFFF7F4FD801B0228C0D8286810
:102850008007F7D52868216920F0F80040EAC10018
:1028600028600DE0C8F800A0FFF7E2FD064604E08E
:10287000FFF7DEFD801B02281FD828688007F7D4E9
:102880002078000722D5864F87486169703771B17B
:1028900001210160FFF7CCFD064604E0FFF7C8FD0B
:1028A000801B022809D838688007F7D50EE0C0F8E9
:1028B00000A0FFF7BDFD064605E082E0FFF7B8FD8A
:1028C000801B02287DD838688007F7D4207840071D
:1028D00068D5DFF8CCB100270BF13C0BDBF800002A
:1028E000C0000BD4DBF8001041F08051CBF8001091
:1028F000DBF80000012700F0805000906B4E30683C
:10290000C00510D4306840F480703060FFF790FD4F
:10291000009005E0FFF78CFD0099401A022850D87E
:102920003068C005F6D55E4EA0686C3601280FD021
:102930000528306810D020F001003060306820F0A9
:1029400004003060A068B8B1FFF772FD00900FE09E
:10295000306840F00100F4E740F004003060F7E731
:10296000FFF766FD0099411A41F28830814266D82E
:1029700030688007F4D50EE0FFF75AFD009007E0BD
:10298000FFF756FD0099411A41F28830814256D82E
:1029900030688007F4D42FB1DBF8001021F08051AB
:1029A000CBF80010A069C8B33D49091D0968C1F3FF
:1029B000810102294AD00228504607D0C8F8600099
:1029C00000E03CE0FFF734FD04463BE04746C8F832
:1029D0006000FFF72DFD064605E000BFFFF728FD6C
:1029E000801B02282BD828688001F7D4D4E907017E
:1029F0000843A16A2E4A490802EB0141626A41EA92
:102A00008211084394F82C1040EA0161C9F80010C3
:102A100001203866FFF70CFD044606E03EE000BFEB
:102A2000FFF706FD001B022809D828688001F7D5AA
:102A300034E000BFFFF7FCFC001B022802D9032092
:102A4000BDE8F88F28688001F4D427E00128F7D08A
:102A5000D9F80000E26900F4800191421CD1226A99
:102A600000F03F01914217D147F6C071626A014000
:102A7000B1EB821F10D1A26A4FF0FF3300F4403156
:102A800003EB5202B1EB024F06D194F82C1000F088
:102A90007060B0EB016F01D00120D1E70020CFE7DB
:102AA0000438024000004742800E47420070004058
:102AB0000000FFFF10B5401EB0F1807F01D3012060
:102AC00010BD4FF0E02460610F21601700F04AFF55
:102AD0000020A06107202061002010BD70B590F893
:102AE0003C20012A2CD0012480F83C40022280F8AE
:102AF0003D2003685A689D6822F070060A683243D8
:102B00005A60104B02689A420ED0B2F1804F0BD03F
:102B10000D4B9A4208D00D4B9A4205D00C4B9A426D
:102B200002D00C4B9A4204D1496825F08003194326
:102B3000916080F83D40002180F83C10084670BD4F
:102B4000022070BD00000140000400400008004069
:102B5000000C00400040014010B5040003D094F880
:102B60003D0010B107E0012010BD002084F83C00BA
:102B7000204600F01FF8022084F83D00211D206847
:102B800000F0E8FC012084F8460084F83E0084F858
:102B90003F0084F8400084F8410084F8420084F843
:102BA000430084F8440084F8450084F83D00002088
:102BB00010BD000008B500680649884208D10648E3
:102BC000016841F002010160006800F0020000901D
:102BD00008BD0000000400404038024090F83D105D
:102BE000012901D001207047022180F83D100068C2
:102BF0000E4988420ED0B0F1804F0BD00C4988426C
:102C000008D00C49884205D00B49884202D00B49B4
:102C1000884204D1816801F00701062903D00168C8
:102C200041F00101016000207047000000000140F8
:102C30000004004000080040000C0040004001403B
:102C400070B5044690F83C000025012817D00126F5
:102C500084F83C60022084F83D002068826822F0FD
:102C6000770222F47F4282600868502838D00DDC59
:102C700020284FD005DC90B3102811D14AE0022063
:102C800070BD302846D040280AD13BE060282FD0C4
:102C900070280DD0B0F5805F03D0B0F5005F12D082
:102CA000012584F83D60002084F83C00284670BD72
:102CB000CB68D1E90121206800F098FC2068816888
:102CC00041F0770109E0CB68D1E90121206800F0EB
:102CD0008DFC2068816841F480418160E1E719E062
:102CE000CA684968206800F093FC5021206806E01B
:102CF000CA684968206800F09CFC6021206800F0E8
:102D00007FFCCEE7CA684968206800F081FC40215A
:102D10002068F4E7226801461046F0E770477047E4
:102D2000F8B5016804460868CA684B6910F00F0FCF
:102D30004FF000055AD003F0010602F490773743B4
:102D400065D0C10705D0D10503D5216C41F0010143
:102D50002164410705D5D90703D0216C41F0020158
:102D60002164810705D5D90703D0216C41F0040106
:102D70002164010707D502F02001314303D0216C03
:102D800041F008012164216C00293BD0800604D564
:102D9000900602D5204600F08DFC20684069216C29
:102DA000C0F3801001F00801014320462BD000F051
:102DB0005AFC20684069400621D52068143050E84C
:102DC000001F21F0400140E80012002AF5D1A06B5D
:102DD000A8B16C490165A06BFFF7AFF8002811D0CE
:102DE000A06B016D01B0BDE8F040084783060ED529
:102DF00093060CD52046BDE8F84000F05BBC2046A9
:102E0000FFF78DFFF8BDFFF78AFF2564F8BD266B3D
:102E10002023012E79D1C60677D5D60675D5086848
:102E2000486800904869400640D5A16B0868406832
:102E30000004000CEAD0A28D8242E7D9E085C8697F
:102E4000B0F5807F2DD020680C3050E8001F21F4B1
:102E5000807140E80012002AF5D12068143050E853
:102E6000001F21F0010140E80012002AF5D120687E
:102E7000143050E8001F21F0400140E80012002A01
:102E8000F5D184F83E30256320680C3050E8001FEF
:102E900021F0100140E80012002AF5D1A06BFFF7E5
:102EA00003F8A08DE18D401A81B229E0A08DE18D5B
:102EB000401A81B2E08D0028A8D00029A6D0206851
:102EC0000C3050E8002F22F4907240E80026002ECB
:102ED000F5D12068143050E8002F22F0010240E8BC
:102EE0000026002EF5D184F83E30256320680C3092
:102EF00050E8002F22F0100240E80023002BF5D10B
:102F00002046FFF70BFFF8BDFFE705062BD515069A
:102F100029D594F83D002128F5D1A068B0F5805F4F
:102F200001D12069B0B1206A411C2162216800787A
:102F30004860E08C401E0004000CE084E3D120686F
:102F4000C16821F08001C1602068C16841F0400182
:102F5000C160D8E7206A0088C0F308004860206A92
:102F6000801C2062E5E74006CDD55006CBD5CA6867
:102F7000204622F04002CA6084F83D3000F0C1F9DA
:102F8000C1E700005736000870B5040004D094F87B
:102F90003D00002510B106E0012070BD84F83C50D2
:102FA000204600F023F8242084F83D002068C16802
:102FB00021F40051C160204600F0DCFB206801696B
:102FC00021F4904101612068416921F02A014161A9
:102FD0002068C16841F40051C1602564202084F854
:102FE0003D0084F83E00002070BD000010B586B0A2
:102FF000044614216846FDF721F9184920688842E3
:1030000029D117480021026842F0100202600068CE
:1030100000F01000059012481438026842F00102D6
:103020000260006800F0010005904FF4C06000905D
:103030000220CDE901010320039007200490694696
:103040000848FFF7FFF8002211462520FFF75EFA37
:103050002520FFF74DFA06B010BD0000001001401A
:10306000443802400000024090F83E30202B0ED140
:1030700059B152B190F83C30012B08D0012380F8AF
:103080003C300023036300F0FBBB012070470220AB
:10309000704700002DE9F047674C4FF000084FF4EF
:1030A00080792078FF287CD2644D6178644F295460
:1030B000401CC0B2207028443E1510F8010C0128B5
:1030C00018D1002201213846FFF7ACF90022022175
:1030D0003846FFF7A7F9002204213846FFF7A2F986
:1030E000002231463846FFF79DF932465549564889
:1030F000FEF712FE2078284410F8010C022818D19F
:10310000012211463846FFF78DF900220221384688
:10311000FFF788F9002204213846FFF783F90022DF
:1031200031463846FFF77EF9324646494648FEF7B3
:10313000F3FD2078284410F8010C032818D1002250
:1031400001213846FFF76EF9012202213846FFF7C8
:1031500069F9002204213846FFF764F9002231465C
:103160003846FFF75FF9324636493748FEF7D4FD57
:103170002078284410F8010C04281AD100220121DB
:103180003846FFF74FF9002202213846FFF74AF987
:10319000012204213846FFF745F90022314638461E
:1031A00000E03AE0FFF73EF9324626492648FEF7AE
:1031B000B3FD2078284410F8010C052818D100220E
:1031C00001213846FFF72EF9002202213846FFF789
:1031D00029F9002204213846FFF724F9012231465B
:1031E0003846FFF71FF9324616491748FEF794FD97
:1031F0002078284410F8010C062804D132461149E1
:103200001148FEF789FD2078284410F8011C0A298E
:1032100009D110F8020C0D2805D184F80080494628
:103220000648FDF70BF8BDE8F04703490122491CA9
:103230000648FFF719BF0000000000200C390020ED
:1032400000040240300000200C3A0020FC3A00202C
:103250002DE9F843044690F83D001F4616460D46FA
:1032600020284CD1C5B1BEB194F83C00012846D00D
:10327000012084F83C004FF00008C4F84080212071
:1032800084F83D00FFF7D4F8A6848146E684A06860
:10329000B0F5805F03D004E00120BDE8F883206929
:1032A00028B12E465FF0000584F83C800EE0002631
:1032B000FAE78021204600F000FBA0B9AEB116F875
:1032C000010B21684860E08C401EE084E08C4B4696
:1032D0004FF0000200970028EBD14FF0400120464C
:1032E00000F0EBFA30B10320D7E735F8020BC0F35A
:1032F0000800E6E7202084F83D000020CDE702200A
:10330000CBE77047FEE700007FB500241548009426
:10331000019402941249039401604FF48031C0E992
:1033200001140461047680F820400903C16201257C
:10333000C5614910C460816280F830504461FEF775
:103340006CFC08B1FEF751FACDE900456946054825
:103350000294FEF74DFA002801D0FEF746FA7FBD31
:10336000002001400C3A0020094808B5016841F4EA
:10337000800101600068002200F480000090114686
:103380003820FFF7C3F8BDE808403820FFF7B0B891
:103390003038024070B586B014216846FCF74EFF05
:1033A00016480024016841F080010160016801F0C5
:1033B00080010591016841F001010160016801F09F
:1033C00001010591016841F00201016000680C4EA5
:1033D00000F0020040F207450590002229463046E1
:1033E000FFF720F801200095CDE901046946304639
:1033F0000394FEF727FF06B070BD0000303802408E
:103400000004024010B586B00024174800940194CF
:103410000294039404941349059401605321C0E974
:1034200001140921C0E903148461FFF795FB08B179
:10343000FEF7DBF94FF48050009069460A48FFF729
:10344000FFFB08B1FEF7D1F92020CDE9040404A95F
:103450000548FFF743FB002801D0FEF7C6F906B088
:1034600010BD000000040040B43A00200C4810B524
:103470000A4901604FF4E1314160002181600C2272
:10348000C160C0E904128161C161FFF77DFD0028C0
:1034900003D0BDE81040FEF7A8B910BD00100140F0
:1034A000FC3A0020FEE7FEE770477047FEF7C6BF14
:1034B00030B593B030216846FCF7C0FE14210CA84B
:1034C000FCF7BCFE1D480025016841F080510160F9
:1034D000006800F0805011901948016821F44041C3
:1034E00041F4004101600068022400F44040119062
:1034F00001200090000401908001CDE906401920D0
:103500000890A820CDE9090404200B906846FFF735
:103510001BF908B172B6FEE70CA90F2081E8310053
:103520004FF48050CDE90F0502210CA8FFF720F8D9
:10353000002801D072B6FEE713B030BD403802401B
:10354000007000400248016841F47001016070475A
:1035500088ED00E0F0B502681D4B1E4C9F031E4D28
:103560001E4E984207D0B84205D0A04203D0A842D0
:1035700001D0B04204D122F0700C4A6842EA0C0239
:10358000984210D0B8420ED0A0420CD0A8420AD027
:10359000B04208D0124CA04205D0124CA04202D03A
:1035A000114CA04203D122F44074CA6822434C69F2
:1035B00022F08002224302608A68C2620A68826244
:1035C000984201D10969016301214161F0BD000008
:1035D000000001400004004000080040000C0040D2
:1035E00000400140004401400048014010B584689B
:1035F00042EA032224F47F440A432243826010BD3E
:10360000826822F070020A4342F00701816070472D
:1036100010B5036A046A24F001040462846924F08A
:10362000F00444EA021423F00A020A4384610262AD
:1036300010BD10B5036A23F0100303628369046AA6
:1036400023F4704343EA023224F0A00343EA011159
:103650008261016210BD10B5806B0021C185C184FB
:10366000FFF75DFB10BD01680C3151E8002F22F41B
:10367000907241E80023002BF5D10168143151E824
:10368000002F22F0010241E80023002BF5D1016B4D
:10369000012909D101680C3151E8002F22F01002F4
:1036A00041E80023002BF5D1202180F83E100021B5
:1036B0000163704708B590F83E10222901D002201E
:1036C00008BD82684FF480539A4201D1016921B14B
:1036D000816A9A421BD04AB10AE00268816A526844
:1036E000C2F308020A80816A891C08E0026972B18B
:1036F0000268526802F07F020A70816A491C816286
:10370000C18D491E0904090CC18503D019E0026866
:103710005268F1E70168CA6822F02002CA600168B5
:10372000CA6822F48072CA6001684A6922F0010204
:103730004A61202180F83E10016B012903D0FFF778
:10374000A9FC002008BD0021016301680C3151E88B
:10375000002F22F0100241E80023002BF5D1016870
:103760000A68D20602D50A6849680091818DFFF780
:10377000D5FAE6E770B5044600680169E26821F40D
:103780004051114301612169A068E2690843616900
:10379000114308432168CA6849F20C639A43024303
:1037A000CA6020684169A26921F4407111434161F6
:1037B00031492068884202D03049884202D1FEF760
:1037C00081FF01E0FEF76EFFE26900231921642505
:1037D0003226B2F5004F626828D0A0FB0101930F9A
:1037E0009200FCF7F3FC0146B0FBF5F06FF0180215
:1037F000504301EB800006EB0010B0FBF5F000F049
:10380000F002B1FBF5F002EB0012B1FBF5F06FF046
:103810001803584301EB800006EB0010B0FBF5F0F5
:1038200000F00F0021681044886070BDA0FB01010A
:1038300092185B41FCF7CAFC0146B0FBF5F00201AF
:10384000B1FBF5F06FF01803584301EB800006EB75
:10385000C000B0FBF5F000F0F80002EB4002B1FB55
:10386000F5F0584301EB800006EBC000B0FBF5F02B
:1038700000F00700D6E700000010014000140140EE
:1038800081628285C28500210164222280F83E2067
:1038900080F83C10016921B10168CA6842F4807265
:1038A000CA6001684A6942F001024A610068C16861
:1038B00041F02001C160002070472DE9F041984699
:1038C00017460E460446069D27E0681C25D02DB1FC
:1038D000FEF7AEFDA0EB0800A8421ED920680C3010
:1038E00050E8001F21F4D07140E80012002AF5D101
:1038F0002068143050E8001F21F0010140E8001258
:10390000002AF5D1202084F83D0084F83E000020F4
:1039100084F83C000320BDE8F0812068006836EAA6
:10392000000004D00020B842CFD00020F3E70120EF
:10393000F9E700000148FFF7F3B90000FC3A002066
:10394000FEE700000FB4054B10B503A9044A029826
:1039500000F06AF810BC5DF814FB00007D3B000825
:10396000280000200907090E002804DB00F1E020F0
:1039700080F80014704700F00F0000F1E02080F89C
:10398000141D704700B52DED048BB0EE409AF0EE9B
:10399000609A83B051EC190BFCF7DDFE41EC180B7B
:1039A00018EE100A18EE901A8DED008B002818BF43
:1039B0000120084320F00040C0F17F6000F1E040AA
:1039C000C00F14D019EE101A19EE900A8DED009B5D
:1039D000002918BF0121084320F00040C0F17F609A
:1039E00000F1E040C00F04BF012000F017F8B0EE76
:1039F000480A03B0F0EE680ABDEC048B00BD02E09B
:103A000008C8121F08C1002AFAD170477047002069
:103A100001E001C1121F002AFBD170470149086073
:103A2000704700002C0000202DE9FF4F89B09B4615
:103A30000446002506E025280BD05A460B999047EE
:103A4000641C6D1C20780028F5D10DB02846BDE817
:103A5000F08F0027B8460122474900E0074314F8D9
:103A6000013F203B02FA03F00842F7D120782E28CC
:103A700019D114F8010F47F004072A280ED06FF06F
:103A80002F022078A0F1300109290CD808EB880119
:103A900002EB410100EB0108641CF2E70A98641C88
:103AA00050F8048B0A9020780028CED0642808D0E3
:103AB000692806D075281ED05A460B9990476D1C70
:103AC00058E00A994FF00A0901C90A91002802DA60
:103AD00040422D2102E0390504D52B218DF820101C
:103AE000012103E0F90704D02021F7E78A4608AE58
:103AF0000DE00021FAE70A994FF00A0901C90A917D
:103B0000F7E74946FCF75EFD303106F8011D002855
:103B1000F7D1ADEB060000F12009780701D44FF092
:103B20000108C84502DDA8EB090000E0002080463E
:103B3000002706E008A85A46C05D0B9990476D1C07
:103B40007F1C5745F6DB04E030205A460B9990471E
:103B50006D1CB8F10001A8F10108F5DC05E016F8CC
:103B6000010B5A460B9990476D1CB9F10001A9F160
:103B70000109F4DC641C65E70928010013B54FF660
:103B8000FF73012269460248FFF762FB00981CBDE3
:103B9000FC3A0020FEF75AFCFFF78AFCFFF7FAFB1D
:103BA000FFF7E2FBFFF7B0FBFFF760FCFFF72AFC33
:103BB00001220D490D48FFF757FA002240F2074154
:103BC0000B48FEF72FFC0B48FFF708F84FF4807204
:103BD00009490A48FEF7A0F8012300229902084883
:103BE000FCF794FEFEE7000001000020FC3A0020F4
:103BF00000040240B43A0020300000200C3A0020BB
:103C0000F838002010B500EE100A2DED028BB1EE51
:103C1000C08A18EE100A20F00040C0F1FF40C00F2B
:103C20000AD010EE100A20F00040C0F1FF40C00F93
:103C300004BF0120FFF7F2FE18EE100ABDEC028B64
:103C400010BD00061016000610160000000000004F
:103C50000000010203040607080900000000010239
:103C60000304000400020006000100050003000731
:103C70008000800480028006800180058003800728
:103C80004000400440024006400140054003400718
:103C9000C000C004C002C006C001C005C003C00708
:103CA00020002004200220062001200520032007F8
:103CB000A000A004A002A006A001A005A003A007E8
:103CC00060006004600260066001600560036007D8
:103CD000E000E004E002E006E001E005E003E007C8
:103CE0001000100410021006100110051003100738
:103CF0009000900490029006900190059003900728
:103D00005000500450025006500150055003500717
:103D1000D000D004D002D006D001D005D003D00707
:103D200030003004300230063001300530033007F7
:103D3000B000B004B002B006B001B005B003B007E7
:103D400070007004700270067001700570037007D7
:103D5000F000F004F002F006F001F005F003F007C7
:103D600008000804080208060801080508030807F7
:103D700088008804880288068801880588038807E7
:103D800048004804480248064801480548034807D7
:103D9000C800C804C802C806C801C805C803C807C7
:103DA00028002804280228062801280528032807B7
:103DB000A800A804A802A806A801A805A803A807A7
:103DC0006800680468026806680168056803680797
:103DD000E800E804E802E806E801E805E803E80787
:103DE00018001804180218061801180518031807F7
:103DF00098009804980298069801980598039807E7
:103E000058005804580258065801580558035807D6
:103E1000D800D804D802D806D801D805D803D807C6
:103E200038003804380238063801380538033807B6
:103E3000B800B804B802B806B801B805B803B807A6
:103E40007800780478027806780178057803780796
:103E5000F800F804F802F806F801F805F803F80786
:103E60000400040404020406040104050403040716
:103E70008400840484028406840184058403840706
:103E800044004404440244064401440544034407F6
:103E9000C400C404C402C406C401C405C403C407E6
:103EA00024002404240224062401240524032407D6
:103EB000A400A404A402A406A401A405A403A407C6
:103EC00064006404640264066401640564036407B6
:103ED000E400E404E402E406E401E405E403E407A6
:103EE0001400140414021406140114051403140716
:103EF0009400940494029406940194059403940706
:103F000054005404540254065401540554035407F5
:103F1000D400D404D402D406D401D405D403D407E5
:103F200034003404340234063401340534033407D5
:103F3000B400B404B402B406B401B405B403B407C5
:103F400074007404740274067401740574037407B5
:103F5000F400F404F402F406F401F405F403F407A5
:103F60000C000C040C020C060C010C050C030C07D5
:103F70008C008C048C028C068C018C058C038C07C5
:103F80004C004C044C024C064C014C054C034C07B5
:103F9000CC00CC04CC02CC06CC01CC05CC03CC07A5
:103FA0002C002C042C022C062C012C052C032C0795
:103FB000AC00AC04AC02AC06AC01AC05AC03AC0785
:103FC0006C006C046C026C066C016C056C036C0775
:103FD000EC00EC04EC02EC06EC01EC05EC03EC0765
:103FE0001C001C041C021C061C011C051C031C07D5
:103FF0009C009C049C029C069C019C059C039C07C5
:104000005C005C045C025C065C015C055C035C07B4
:10401000DC00DC04DC02DC06DC01DC05DC03DC07A4
:104020003C003C043C023C063C013C053C033C0794
:10403000BC00BC04BC02BC06BC01BC05BC03BC0784
:104040007C007C047C027C067C017C057C037C0774
:10405000FC00FC04FC02FC06FC01FC05FC03FC0764
:104060000200020402020206020102050203020724
:104070008200820482028206820182058203820714
:104080004200420442024206420142054203420704
:10409000C200C204C202C206C201C205C203C207F4
:1040A00022002204220222062201220522032207E4
:1040B000A200A204A202A206A201A205A203A207D4
:1040C00062006204620262066201620562036207C4
:1040D000E200E204E202E206E201E205E203E207B4
:1040E0001200120412021206120112051203120724
:1040F0009200920492029206920192059203920714
:104100005200520452025206520152055203520703
:10411000D200D204D202D206D201D205D203D207F3
:1041200032003204320232063201320532033207E3
:10413000B200B204B202B206B201B205B203B207D3
:1041400072007204720272067201720572037207C3
:10415000F200F204F202F206F201F205F203F207B3
:104160000A000A040A020A060A010A050A030A07E3
:104170008A008A048A028A068A018A058A038A07D3
:104180004A004A044A024A064A014A054A034A07C3
:10419000CA00CA04CA02CA06CA01CA05CA03CA07B3
:1041A0002A002A042A022A062A012A052A032A07A3
:1041B000AA00AA04AA02AA06AA01AA05AA03AA0793
:1041C0006A006A046A026A066A016A056A036A0783
:1041D000EA00EA04EA02EA06EA01EA05EA03EA0773
:1041E0001A001A041A021A061A011A051A031A07E3
:1041F0009A009A049A029A069A019A059A039A07D3
:104200005A005A045A025A065A015A055A035A07C2
:10421000DA00DA04DA02DA06DA01DA05DA03DA07B2
:104220003A003A043A023A063A013A053A033A07A2
:10423000BA00BA04BA02BA06BA01BA05BA03BA0792
:104240007A007A047A027A067A017A057A037A0782
:10425000FA00FA04FA02FA06FA01FA05FA03FA0772
:104260000600060406020606060106050603060702
:1042700086008604860286068601860586038607F2
:1042800046004604460246064601460546034607E2
:10429000C600C604C602C606C601C605C603C607D2
:1042A00026002604260226062601260526032607C2
:1042B000A600A604A602A606A601A605A603A607B2
:1042C00066006604660266066601660566036607A2
:1042D000E600E604E602E606E601E605E603E60792
:1042E0001600160416021606160116051603160702
:1042F00096009604960296069601960596039607F2
:1043000056005604560256065601560556035607E1
:10431000D600D604D602D606D601D605D603D607D1
:1043200036003604360236063601360536033607C1
:10433000B600B604B602B606B601B605B603B607B1
:1043400076007604760276067601760576037607A1
:10435000F600F604F602F606F601F605F603F60791
:104360000E000E040E020E060E010E050E030E07C1
:104370008E008E048E028E068E018E058E038E07B1
:104380004E004E044E024E064E014E054E034E07A1
:10439000CE00CE04CE02CE06CE01CE05CE03CE0791
:1043A0002E002E042E022E062E012E052E032E0781
:1043B000AE00AE04AE02AE06AE01AE05AE03AE0771
:1043C0006E006E046E026E066E016E056E036E0761
:1043D000EE00EE04EE02EE06EE01EE05EE03EE0751
:1043E0001E001E041E021E061E011E051E031E07C1
:1043F0009E009E049E029E069E019E059E039E07B1
:104400005E005E045E025E065E015E055E035E07A0
:10441000DE00DE04DE02DE06DE01DE05DE03DE0790
:104420003E003E043E023E063E013E053E033E0780
:10443000BE00BE04BE02BE06BE01BE05BE03BE0770
:104440007E007E047E027E067E017E057E037E0760
:10445000FE00FE04FE02FE06FE01FE05FE03FE0750
:10446000010000000000803F00000000ECFF7F3FE3
:10447000D40FC93AB1FF7F3FC70F493B4EFF7F3F83
:10448000C1CB963BC4FE7F3F890FC93B13FE7F3FE4
:104490003053FB3B39FD7F3F59CB163C39FC7F3F06
:1044A00002ED2F3C11FB7F3F900E493CC1F97F3F4D
:1044B0000030623C4AF87F3F4B517B3CACF67F3F7B
:1044C00038398A3CE6F47F3FB6C9963CF8F27F3F24
:1044D0001C5AA33CE3F07F3F69EAAF3CA7EE7F3F65
:1044E0009B7ABC3C43EC7F3FB00AC93CB8E97F3FB4
:1044F000A69AD53C05E77F3F7B2AE23C2BE47F3F31
:104500002DBAEE3C29E17F3FB949FB3C00DE7F3FFD
:1045100090EC033DAFDA7F3F2F340A3D37D77F3F22
:10452000B87B103D98D37F3F2CC3163DD1CF7F3F42
:10453000880A1D3DE2CB7F3FCC51233DCCC77F3F56
:10454000F698293D8FC37F3F07E02F3D2ABF7F3F6D
:10455000FC26363D9EBA7F3FD56D3C3DEAB57F3F98
:1045600091B4423D0FB17F3F2FFB483D0DAC7F3FE3
:10457000AF414F3DE3A67F3F0E88553D91A17F3F60
:104580004CCE5B3D189C7F3F6814623D78967F3F20
:10459000625A683DB1907F3F38A06E3DC28A7F3F2E
:1045A000E9E5743DAB847F3F742B7B3D6D7E7F3F9F
:1045B0006CB8803D08787F3F0ADB833D7B717F3F8D
:1045C00094FD863DC76A7F3F0A208A3DEC637F3FAA
:1045D0006A428D3DE95C7F3FB464903DBF557F3FAB
:1045E000E786933D6D4E7F3F05A9963DF4467F3F9C
:1045F0000ACB993D543F7F3FF9EC9C3D8D377F3F7F
:10460000CF0EA03D9D2F7F3F8C30A33D87277F3F5E
:104610003052A63D491F7F3FBA73A93DE4167F3F44
:104620002B95AC3D580E7F3F80B6AF3DA4057F3F34
:10463000BBD7B23DC9FC7E3FDAF8B53DC7F37E3F3C
:10464000DD19B93D9DEA7E3FC33ABC3D4CE17E3F5A
:104650008D5BBF3DD4D77E3F397CC23D34CE7E3F9B
:10466000C69CC53D6DC47E3F36BDC83D7FBA7E3F0A
:1046700086DDCB3D69B07E3FB7FDCE3D2DA67E3FAA
:10468000C81DD23DC99B7E3FB93DD53D3D917E3F82
:10469000895DD83D8B867E3F377DDB3DB17B7E3F9C
:1046A000C49CDE3DB0707E3F2EBCE13D88657E3F00
:1046B00076DBE43D385A7E3F9AFAE73DC14E7E3FB5
:1046C0009A19EB3D23437E3F7638EE3D5E377E3FC1
:1046D0002E57F13D722B7E3FC075F43D5E1F7E3F2D
:1046E0002C94F73D24137E3F73B2FA3DC2067E3F01
:1046F00092D0FD3D38FA7D3F4577003E88ED7D3F05
:104700002E06023EB1E07D3F0295033EB2D37D3FCF
:10471000C223053E8CC67D3F6EB2063E40B97D3F4A
:104720000541083ECCAB7D3F86CF093E309E7D3FA4
:10473000F35D0B3E6E907D3F4AEC0C3E85827D3FE3
:104740008B7A0E3E74747D3FB708103E3D667D3F08
:10475000CC96113EDE577D3FCA24133E59497D3F1A
:10476000B2B2143EAC3A7D3F8340163ED82B7D3F1B
:104770003DCE173EDD1C7D3FE05B193EBC0D7D3F0D
:104780006BE91A3E73FE7C3FDE761C3E03EF7C3FF6
:1047900038041E3E6CDF7C3F7B911F3EAECF7C3FDA
:1047A000A51E213EC9BF7C3FB6AB223EBDAF7C3FBC
:1047B000AD38243E8A9F7C3F8CC5253E318F7C3F9F
:1047C0005152273EB07E7C3FFCDE283E086E7C3F87
:1047D0008D6B2A3E3A5D7C3F04F82B3E444C7C3F77
:1047E00061842D3E283B7C3FA2102F3EE5297C3F73
:1047F000C99C303E7A187C3FD428323EE9067C3F83
:10480000C4B4333E31F57B3F9840353E53E37B3FA4
:1048100050CC363E4DD17B3FEC57383E20BF7B3FDE
:104820006CE3393ECDAC7B3FCF6E3B3E539A7B3F32
:1048300015FA3C3EB2877B3F3E853E3EEA747B3FA5
:104840004910403EFC617B3F379B413EE74E7B3F3A
:104850000726433EAB3B7B3FB9B0443E48287B3FF5
:104860004D3B463EBE147B3FC2C5473E0E017B3FDB
:104870001850493E37ED7A3F4FDA4A3E3AD97A3FEF
:1048800067644C3E16C57A3F60EE4D3ECBB07A3F32
:1048900038784F3E599C7A3FF101513EC1877A3FAB
:1048A000898B523E02737A3F0115543E1C5E7A3F5B
:1048B000589E553E10497A3F8F27573EDD337A3F49
:1048C000A4B0583E841E7A3F97395A3E04097A3F75
:1048D0006AC25B3E5EF3793F1A4B5D3E91DD793FE4
:1048E000A8D35E3E9DC7793F135C603E83B1793F9C
:1048F0005CE4613E439B793F836C633EDC84793F9B
:1049000086F4643E4E6E793F667C663E9A57793FE8
:104910002204683EC040793FBA8B693EBF29793F87
:104920002F136B3E9812793F7F9A6C3E4AFB783F7B
:10493000AB216E3ED6E3783FB2A86F3E3BCC783FCA
:10494000942F713E7BB4783F51B6723E939C783F72
:10495000E83C743E8684783F5AC3753E526C783F7B
:10496000A649773EF853783FCCCF783E773B783FE7
:10497000CB557A3ED122783FA4DB7B3E040A783FB8
:1049800056617D3E10F1773FE1E67E3EF7D7773FF7
:104990002236803EB7BE773FC0F8803E51A5773FB4
:1049A0004ABB813EC58B773FC07D823E1372773F05
:1049B0002240833E3A58773F7002843E3C3E773F28
:1049C000AAC4843E1724773FCE86853ECC09773F24
:1049D000DF48863E5BEF763FDA0A873EC4D4763FF7
:1049E000C1CC873E07BA763F938E883E249F763FA0
:1049F0005050893E1B84763FF8118A3EEC68763F22
:104A00008AD38A3E974D763F07958B3E1B32763F81
:104A10006E568C3E7A16763FC0178D3EB3FA753FC0
:104A2000FCD88D3EC6DE753F229A8E3EB3C2753FDE
:104A3000325B8F3E7BA6753F2C1C903E1C8A753FD7
:104A400010DD903E976D753FDD9D913EED50753FB9
:104A5000945E923E1D34753F351F933E2717753F78
:104A6000BFDF933E0BFA743F31A0943EC9DC743F24
:104A70008D60953E62BF743FD220963ED5A1743FB3
:104A800000E1963E2284743F17A1973E4966743F29
:104A90001661983E4B48743FFE20993E272A743F8A
:104AA000CEE0993EDD0B743F86A09A3E6EED733FDB
:104AB00027609B3ED9CE733FAF1F9C3E1FB0733F14
:104AC00020DF9C3E3F91733F789E9D3E3972733F3D
:104AD000B85D9E3E0E53733FDF1C9F3EBE33733F57
:104AE000EEDB9F3E4714733FE59AA03EACF4723F65
:104AF000C259A13EEBD4723F8718A23E04B5723F63
:104B000033D7A23EF894723FC595A33EC774723F57
:104B10003F54A43E7054723F9F12A53EF433723F3F
:104B2000E5D0A53E5213723F128FA63E8CF2713F24
:104B3000254DA73E9FD1713F1F0BA83E8EB0713F00
:104B4000FEC8A83E578F713FC486A93EFB6D713FDA
:104B50006F44AA3E7A4C713F0102AB3ED42A713FAA
:104B600077BFAB3E0809713FD47CAC3E17E7703F7E
:104B7000153AAD3E02C5703F3CF7AD3EC6A2703F50
:104B800049B4AE3E6680703F3A71AF3EE15D703F22
:104B9000102EB03E373B703FCBEAB03E6718703FF7
:104BA0006BA7B13E73F56F3FEF63B23E5AD26F3FD2
:104BB0005820B33E1BAF6F3FA5DCB33EB88B6F3FB1
:104BC000D698B43E30686F3FEC54B53E83446F3F97
:104BD000E610B63EB0206F3FC3CCB63EBAFC6E3F87
:104BE0008488B73E9ED86E3F2A44B83E5DB46E3F7F
:104BF000B2FFB83EF88F6E3F1EBBB93E6D6B6E3F85
:104C00006E76BA3EBE466E3FA031BB3EEB216E3F94
:104C1000B6ECBB3EF2FC6D3FAFA7BC3ED5D76D3FB7
:104C20008B62BD3E93B26D3F4A1DBE3E2D8D6D3FE2
:104C3000EBD7BE3EA1676D3F6F92BF3EF2416D3F25
:104C4000D54CC03E1D1C6D3F1E07C13E24F66C3F77
:104C500048C1C13E07D06C3F557BC23EC5A96C3FE1
:104C60004435C33E5E836C3F15EFC33ED45C6C3F5E
:104C7000C8A8C43E24366C3F5C62C53E500F6C3FF2
:104C8000D21BC63E58E86B3F29D5C63E3BC16B3FA1
:104C9000628EC73EFB996B3F7C47C83E95726B3F67
:104CA0007700C93E0C4B6B3F53B9C93E5E236B3F47
:104CB0001072CA3E8CFB6A3FAE2ACB3E95D36A3F48
:104CC0002CE3CB3E7BAB6A3F8B9BCC3E3C836A3F65
:104CD000CA53CD3ED95A6A3FEA0BCE3E52326A3FA2
:104CE000EAC3CE3EA7096A3FCA7BCF3ED7E0693F01
:104CF0008A33D03EE4B7693F2AEBD03ECC8E693F81
:104D0000AAA2D13E9165693F095AD23E323C693F21
:104D10004811D33EAE12693F67C8D33E07E9683FEA
:104D2000647FD43E3CBF683F4136D53E4C95683FDA
:104D3000FDECD53E396B683F99A3D63E0341683FF1
:104D4000135AD73EA816683F6B10D83E2AEC673F2F
:104D5000A3C6D83E87C1673FB97CD93EC196673F9D
:104D6000AD32DA3ED86B673F80E8DA3ECA40673F33
:104D7000319EDB3E9915673FC153DC3E45EA663FF5
:104D80002E09DD3ECCBE663F79BEDD3E3093663FE8
:104D9000A273DE3E7167663FA928DF3E8E3B663F09
:104DA0008DDDDF3E880F663F4F92E03E5EE3653F5C
:104DB000EE46E13E10B7653F6AFBE13EA08A653FE3
:104DC000C4AFE23E0B5E653FFA63E33E5431653F9C
:104DD0000E18E43E7904653FFECBE43E7BD7643F8A
:104DE000CB7FE53E59AA643F7533E63E147D643FB0
:104DF000FBE6E63EAC4F643F5D9AE73E2122643F0E
:104E00009C4DE83E73F4633FB700E93EA1C6633FA3
:104E1000AEB3E93EAC98633F8166EA3E956A633F74
:104E20003019EB3E5A3C633FBBCBEB3EFC0D633F7E
:104E3000217EEC3E7BDF623F6330ED3ED7B0623FC8
:104E400080E2ED3E1082623F7994EE3E2653623F4F
:104E50004C46EF3E1A24623FFBF7EF3EEAF4613F17
:104E600085A9F03E98C5613FEA5AF13E2296613F1E
:104E7000290CF23E8A66613F43BDF23ED036613F67
:104E8000386EF33EF206613F071FF43EF2D6603FF4
:104E9000B1CFF43ECFA6603F3580F53E8976603FC6
:104EA0009330F63E2146603FCBE0F63E9615603FDC
:104EB000DC90F73EE9E45F3FC840F83E19B45F3F3D
:104EC0008EF0F83E27835F3F2DA0F93E12525F3FE0
:104ED000A54FFA3EDB205F3FF7FEFA3E81EF5E3FD3
:104EE00022AEFB3E05BE5E3F275DFC3E678C5E3F0B
:104EF000040CFD3EA65A5E3FBBBAFD3EC3285E3F92
:104F00004A69FE3EBEF65D3FB217FF3E97C45D3F65
:104F1000F3C5FF3E4D925D3F063A003FE15F5D3FC6
:104F2000FF90003F532D5D3FE4E7003FA3FA5C3F55
:104F3000B53E013FD1C75C3F7395013FDD945C3FB7
:104F40001CEC013FC7615C3FB142023F8E2E5C3FCB
:104F50003299023F34FB5B3F9FEF023FB8C75B3F94
:104F6000F845033F1A945B3F3D9C033F5A605B3F0B
:104F70006DF2033F792C5B3F8948043F75F85A3F37
:104F8000919E043F50C45A3F84F4043F09905A3F15
:104F9000624A053FA05B5A3F2CA0053F16275A3FA7
:104FA000E2F5053F6AF2593F824B063F9CBD593FEF
:104FB0000EA1063FAD88593F86F6063F9C53593FE8
:104FC000E84B073F6A1E593F36A1073F17E9583F94
:104FD0006FF6073FA1B3583F924B083F0B7E583FF7
:104FE000A1A0083F5348583F9BF5083F7912583F0E
:104FF0007F4A093F7FDC573F4E9F093F63A6573FDB
:1050000009F4093F2670573FAD480A3FC739573F5B
:105010003D9D0A3F4803573FB7F10A3FA7CC563F93
:105020001C460B3FE595563F6B9A0B3F025F563F80
:10503000A5EE0B3FFE27563FC9420C3FD9F0553F26
:10504000D7960C3F93B9553FD0EA0C3F2C82553F81
:10505000B33E0D3FA44A553F81920D3FFB12553F91
:1050600038E60D3F31DB543FDA390E3F47A3543F5A
:10507000658D0E3F3B6B543FDBE00E3F0F33543FDB
:105080003B340F3FC3FA533F84870F3F55C2533F12
:10509000B8DA0F3FC789533FD52D103F1851533F02
:1050A000DC80103F4918533FCDD3103F59DF523FAA
:1050B000A726113F49A6523F6B79113F186D523F09
:1050C00019CC113FC633523FB01E123F54FA513F24
:1050D0003071123FC2C0513F9AC3123F1087513FF7
:1050E000EE15133F3D4D513F2A68133F4A13513F80
:1050F00050BA133F37D9503F5F0C143F039F503FC6
:10510000585E143FAF64503F39B0143F3B2A503FC4
:105110000402153FA8EF4F3FB753153FF4B44F3F7C
:1051200054A5153F1F7A4F3FD9F6153F2B3F4F3FF0
:105130004748163F17044F3F9F99163FE4C84E3F1C
:10514000DFEA163F908D4E3F073C173F1C524E3F03
:10515000188D173F89164E3F12DE173FD5DA4D3FA7
:10516000F52E183F029F4D3FC07F183F10634D3F03
:1051700073D0183FFD264D3F0F21193FCBEA4C3F1E
:105180009471193F79AE4C3F00C2193F08724C3FF1
:1051900055121A3F78354C3F93621A3FC7F84B3F80
:1051A000B8B21A3FF8BB4B3FC6021B3F097F4B3FCB
:1051B000BB521B3FFA414B3F99A21B3FCC044B3FD4
:1051C0005FF21B3F7FC74A3F0C421C3F138A4A3F96
:1051D000A2911C3F874C4A3F1FE11C3FDC0E4A3F17
:1051E00084301D3F12D1493FD17F1D3F2993493F54
:1051F00006CF1D3F2155493F221E1E3FFA16493F4B
:10520000266D1E3FB3D8483F12BC1E3F4E9A483F02
:10521000E50A1F3FCA5B483F9F591F3F271D483F74
:1052200041A81F3F65DE473FCBF61F3F849F473FA6
:105230003B45203F8560473F9393203F6721473F91
:10524000D2E1203F2AE2463FF92F213FCEA2463F3E
:10525000067E213F5463463FFBCB213FBB23463FA5
:10526000D719223F03E4453F9967223F2DA4453FCC
:1052700043B5223F3964453FD302233F2624453FAF
:105280004B50233FF5E3443FA99D233FA5A3443F53
:10529000EEEA233F3763443F1A38243FAB22443FB2
:1052A0002C85243F00E2433F25D2243F38A1433FD1
:1052B000041F253F5160433FCB6B253F4C1F433FAD
:1052C00077B8253F29DE423F0A05263FE89C423F4A
:1052D0008451263F895B423FE39D263F0B1A423FA4
:1052E0002AEA263F70D8413F5636273FB796413FBE
:1052F0006882273FE154413F61CE273FEC12413F96
:10530000401A283FDAD0403F0566283FA98E403F2B
:10531000B0B1283F5C4C403F41FD283FF009403F81
:10532000B848293F67C73F3F1594293FC0843F3F96
:1053300057DF293FFC413F3F802A2A3F1BFF3E3F6A
:105340008E752A3F1BBC3E3F82C02A3FFF783E3FFE
:105350005B0B2B3FC5353E3F1B562B3F6EF23D3F4F
:10536000BFA02B3FF9AE3D3F4AEB2B3F676B3D3F64
:10537000B9352C3FB8273D3F0F802C3FECE33C3F35
:1053800049CA2C3F03A03C3F69142D3FFC5B3C3FC6
:105390006F5E2D3FD9173C3F59A82D3F98D33B3F17
:1053A00029F22D3F3B8F3B3FDE3B2E3FC14A3B3F27
:1053B00078852E3F29063B3FF7CE2E3F75C13A3FF9
:1053C0005B182F3FA47C3A3FA5612F3FB7373A3F88
:1053D000D3AA2F3FACF2393FE6F32F3F85AD393FDB
:1053E000DE3C303F4268393FBB85303FE122393FE8
:1053F0007CCE303F65DD383F2217313FCB97383FB9
:10540000AD5F313F1652383F1DA8313F430C383F46
:1054100071F0313F55C6373FAA38323F4A80373F97
:10542000C780323F233A373FC9C8323FDFF3363FA8
:10543000AF10333F7FAD363F7A58333F0467363F76
:1054400029A0333F6C20363FBCE7333FB8D9353F06
:10545000342F343FE792353F8F76343FFB4B353F57
:10546000CFBD343FF304353FF304353FCFBD343F68
:10547000FB4B353F8F76343FE792353F342F343F37
:10548000B8D9353FBCE7333F6C20363F29A0333FC6
:105490000467363F7A58333F7FAD363FAF10333F16
:1054A000DFF3363FC9C8323F233A373FC780323F28
:1054B0004A80373FAA38323F55C6373F71F0313FF7
:1054C000430C383F1DA8313F1652383FAD5F313F86
:1054D000CB97383F2217313F65DD383F7CCE303FD8
:1054E000E122393FBB85303F4268393FDE3C303FE7
:1054F00085AD393FE6F32F3FACF2393FD3AA2F3FBA
:10550000B7373A3FA5612F3FA47C3A3F5B182F3F46
:1055100075C13A3FF7CE2E3F29063B3F78852E3F97
:10552000C14A3B3FDE3B2E3F3B8F3B3F29F22D3FA5
:1055300098D33B3F59A82D3FD9173C3F6F5E2D3F75
:10554000FC5B3C3F69142D3F03A03C3F49CA2C3F04
:10555000ECE33C3F0F802C3FB8273D3FB9352C3F53
:10556000676B3D3F4AEB2B3FF9AE3D3FBFA02B3F62
:105570006EF23D3F1B562B3FC5353E3F5B0B2B3F2D
:10558000FF783E3F82C02A3F1BBC3E3F8E752A3FBC
:105590001BFF3E3F802A2A3FFC413F3F57DF293F08
:1055A000C0843F3F1594293F67C73F3FB848293F14
:1055B000F009403F41FD283F5C4C403FB0B1283FDF
:1055C000A98E403F0566283FDAD0403F401A283F69
:1055D000EC12413F61CE273FE154413F6882273FB3
:1055E000B796413F5636273F70D8413F2AEA263FBB
:1055F0000B1A423FE39D263F895B423F8451263F81
:10560000E89C423F0A05263F29DE423F77B8253F06
:105610004C1F433FCB6B253F5160433F041F253F49
:1056200038A1433F25D2243F00E2433F2C85243F4D
:10563000AB22443F1A38243F3763443FEEEA233F0E
:10564000A5A3443FA99D233FF5E3443F4B50233F8F
:105650002624453FD302233F3964453F43B5223FCB
:105660002DA4453F9967223F03E4453FD719223FC8
:10567000BB23463FFBCB213F5463463F067E213F81
:10568000CEA2463FF92F213F2AE2463FD2E1203FFA
:105690006721473F9393203F8560473F3B45203F2D
:1056A000849F473FCBF61F3F65DE473F41A81F3F22
:1056B000271D483F9F591F3FCA5B483FE50A1F3FD0
:1056C0004E9A483F12BC1E3FB3D8483F266D1E3F3E
:1056D000FA16493F221E1E3F2155493F06CF1D3F66
:1056E0002993493FD17F1D3F12D1493F84301D3F4F
:1056F000DC0E4A3F1FE11C3F874C4A3FA2911C3FF2
:10570000138A4A3F0C421C3F7FC74A3F5FF21B3F50
:10571000CC044B3F99A21B3FFA414B3FBB521B3F6E
:10572000097F4B3FC6021B3FF8BB4B3FB8B21A3F45
:10573000C7F84B3F93621A3F78354C3F55121A3FDA
:1057400008724C3F00C2193F79AE4C3F9471193F2B
:10575000CBEA4C3F0F21193FFD264D3F73D0183F38
:1057600010634D3FC07F183F029F4D3FF52E183FFD
:10577000D5DA4D3F12DE173F89164E3F188D173F81
:105780001C524E3F073C173F908D4E3FDFEA163FBD
:10579000E4C84E3F9F99163F17044F3F4748163FB6
:1057A0002B3F4F3FD9F6153F1F7A4F3F54A5153F6A
:1057B000F4B44F3FB753153FA8EF4F3F0402153FD6
:1057C0003B2A503F39B0143FAF64503F585E143FFE
:1057D000039F503F5F0C143F37D9503F50BA133FDF
:1057E0004A13513F2A68133F3D4D513FEE15133F79
:1057F0001087513F9AC3123FC2C0513F3071123FD0
:1058000054FA513FB01E123FC633523F19CC113FDC
:10581000186D523F6B79113F49A6523FA726113FA1
:1058200059DF523FCDD3103F4918533FDC80103F22
:105830001851533FD52D103FC789533FB8DA0F3F5A
:1058400055C2533F84870F3FC3FA533F3B340F3F4A
:105850000F33543FDBE00E3F3B6B543F658D0E3FF3
:1058600047A3543FDA390E3F31DB543F38E60D3F52
:10587000FB12553F81920D3FA44A553FB33E0D3F69
:105880002C82553FD0EA0C3F93B9553FD7960C3F39
:10589000D9F0553FC9420C3FFE27563FA5EE0B3FBE
:1058A000025F563F6B9A0B3FE595563F1C460B3FF8
:1058B000A7CC563FB7F10A3F4803573F3D9D0A3FEB
:1058C000C739573FAD480A3F2670573F09F4093F93
:1058D00063A6573F4E9F093F7FDC573F7F4A093FF2
:1058E0007912583F9BF5083F5348583FA1A0083F05
:1058F0000B7E583F924B083FA1B3583F6FF6073FCE
:1059000017E9583F36A1073F6A1E593FE84B073F4A
:105910009C53593F86F6063FAD88593F0EA1063F7E
:105920009CBD593F824B063F6AF2593FE2F5053F65
:1059300016275A3F2CA0053FA05B5A3F624A053FFD
:1059400009905A3F84F4043F50C45A3F919E043F4B
:1059500075F85A3F8948043F792C5B3F6DF2033F4D
:105960005A605B3F3D9C033F1A945B3FF845033F01
:10597000B8C75B3F9FEF023F34FB5B3F3299023F6A
:105980008E2E5C3FB142023FC7615C3F1CEC013F81
:10599000DD945C3F7395013FD1C75C3FB53E013F4D
:1059A000A3FA5C3FE4E7003F532D5D3FFF90003FCB
:1059B000E15F5D3F063A003F4D925D3FF3C5FF3E1C
:1059C00097C45D3FB217FF3EBEF65D3F4A69FE3E9B
:1059D000C3285E3FBBBAFD3EA65A5E3F040CFD3EA7
:1059E000678C5E3F275DFC3E05BE5E3F22AEFB3E00
:1059F00081EF5E3FF7FEFA3EDB205F3FA54FFA3EA8
:105A000012525F3F2DA0F93E27835F3F8EF0F83E94
:105A100019B45F3FC840F83EE9E45F3FDC90F73ED1
:105A20009615603FCBE0F63E2146603F9330F63E50
:105A30008976603F3580F53ECFA6603FB1CFF43E1A
:105A4000F2D6603F071FF43EF206613F386EF33E28
:105A5000D036613F43BDF23E8A66613F290CF23E7B
:105A60002296613FEA5AF13E98C5613F85A9F03E12
:105A7000EAF4613FFBF7EF3E1A24623F4C46EF3EEB
:105A80002653623F7994EE3E1082623F80E2ED3E03
:105A9000D7B0623F6330ED3E7BDF623F217EEC3E5C
:105AA000FC0D633FBBCBEB3E5A3C633F3019EB3EF2
:105AB000956A633F8166EA3EAC98633FAEB3E93EC8
:105AC000A1C6633FB700E93E73F4633F9C4DE83ED7
:105AD0002122643F5D9AE73EAC4F643FFBE6E63E21
