:020000040800F2
:100000004804002045010008A10800086D08000808
:100010009D08000827050008E30F00080000000005
:10002000000000000000000000000000610A00085D
:10003000510700080000000029090008090C000809
:100040005F0100085F0100085F0100085F01000810
:100050005F0100085F0100085F0100085F01000800
:100060005F0100085F0100085F0100083905000812
:100070005F0100085F0100085F0100085F010008E0
:100080005F0100085F0100085F0100085F010008D0
:100090005F0100085F0100085F0100085F010008C0
:1000A0005F0100085F0100085F0100085F010008B0
:1000B0005F0100085F0100085F0100085F010008A0
:1000C0005F0100085F0100085F0100085F01000890
:1000D0005F010008190E00085F0100085F010008B9
:1000E0005F0100085F0100085F0100085F01000870
:1000F0005F0100085F0100085F0100085F01000860
:100100005F0100085F0100085F0100085F0100084F
:100110005F0100085F0100085F0100085F0100083F
:100120005F0100085F0100085F0100085F0100082F
:10013000DFF80CD000F02EF80048004755120008F8
:10014000480400200648804706480047FEE7FEE7CF
:10015000FEE7FEE7FEE7FEE7FEE7FEE7FEE7FEE777
:100160004D0C00083101000830B50B460146002057
:100170002022012409E021FA02F59D4205D303FA69
:1001800002F5491B04FA02F52844151EA2F10102EA
:10019000F1DC30BD064C074D06E0E06840F001039D
:1001A00094E8070098471034AC42F6D3FFF7C4FF39
:1001B00080120008A012000808B50121082000F0F4
:1001C000D5FB4FF47040ADF8000003208DF802001D
:1001D00010208DF803006946014800F0BAFA08BD06
:1001E000000C014000B589B00121082000F0BEFBE1
:1001F0004FF40070ADF8200003208DF82200182085
:100200008DF8230008A91A4800F0A3FA0121042060
:1002100000F09CFB05A800F0F5FD3120ADF81800BA
:1002200040F2CF20ADF814000020ADF81A00ADF870
:10023000160005A90F4800F093FD6020ADF80400FA
:100240000120ADF806001920ADF80A000220ADF833
:100250000C0001A9074800F045FD0121054800F008
:1002600031FD0021034800F021FD09B000BD000070
:10027000000C01400008004008B50121042000F0F6
:1002800075FB0120ADF8000000208DF803006946E1
:10029000014800F05EFA08BD0008014010B5FFF704
:1002A000EBFF00F009F8FFF79DFF0121014800F086
:1002B000FDFC10BD0008004000B591B001210846CA
:1002C00000F034FB334800F069F9334806903348B6
:1002D0000790002008900220099000200A900B90BF
:1002E0004FF480700C9080000D9020200E90000242
:1002F0000F900020109006A9264800F00BFA01216B
:10030000244800F03FF90121480200F02FFB0020B3
:10031000019001208DF808008DF809004FF420208D
:1003200003900020049001208DF8140001A91A48C0
:100330004C3800F05FF805230122002116484C38A4
:1003400000F080F8012114484C3800F034F8012105
:1003500011484C3800F024F80F484C3800F0CEF823
:1003600000BF0D484C3800F03BF80028F9D10A488E
:100370004C3800F0D3F800BF07484C3800F026F89E
:100380000028F9D1012104484C3800F0BCF811B024
:1003900000BD0000080002404C2401402400002061
:1003A00021B1826842F00102826003E0826822F09B
:1003B00001028260704721B1826842F480728260DB
:1003C00003E0826822F48072826070470146002058
:1003D0008A6802F004020AB1012000E000207047A0
:1003E000014600208A6802F008020AB1012000E0FC
:1003F0000020704730B502460020002350680F4CA3
:1004000020400D790C6844EA052420435060906830
:100410000B4C2040D1E902542C434D7944EA450469
:1004200020439060D06A20F470000C7C641EE4B21B
:10043000234340EA0350D06230BD0000FFFEF0FFCE
:10044000FDF7F1FFF0B504460D4600200021092D0F
:1004500011DDE068A5F10A0606EB4607072606FA55
:1004600007F18843A5F10A0606EB460603FA06F1F2
:100470000843E0600CE0206905EB4507072606FA13
:1004800007F1884305EB450603FA06F108432061AE
:10049000072A0FDA606B561E06EB86071F2606FA40
:1004A00007F18843561E06EB860605FA06F1084357
:1004B000606322E00D2A0FDA206BD61F06EB860759
:1004C0001F2606FA07F18843D61F06EB860605FAB3
:1004D00006F10843206310E0E06AA2F10D0606EB86
:1004E00086071F2606FA07F18843A2F10D0606EBE0
:1004F000860605FA06F10843E062F0BD816841F026
:1005000008018160704721B1826842F4A0028260D4
:1005100003E0826822F4A00282607047816841F0A3
:1005200004018160704700BFFEE710B54FF4A06082
:1005300000F0F0F910BD000010B5022000F0D4F872
:1005400028B105484288018804A000F0A7FD0220D8
:1005500000F00AF810BD000024000020696E20257C
:10056000642025640000000000F0805111B10349AF
:10057000086001E00249486070470000040402403E
:100580000000024021B1026842F00102026004E072
:1005900002684FF6FE731A400260704701684FF61A
:1005A000FE72114001600021016041608160C16004
:1005B0004B49884208D14A490839496841F00F013E
:1005C000474A083A51608AE045491431884208D1C7
:1005D00043490839496841F0F001414A083A5160FD
:1005E0007DE03F492831884208D13D4908394968B2
:1005F00041F470613A4A083A516070E038493C3140
:10060000884208D136490839496841F47041344A72
:10061000083A516063E032495031884208D130498C
:100620000839496841F470212D4A083A516056E072
:100630002B496431884208D129490839496841F475
:100640007001274A083A516049E0254978318842CB
:1006500008D123490839496841F07061204A083AB5
:1006600051603CE01F49884206D1011F096841F0F2
:100670000F01021F116032E01A491431884208D17B
:100680001849091F096841F0F001164A121F11604C
:1006900025E014492831884208D11249091F096808
:1006A00041F470610F4A121F116018E00D493C318E
:1006B000884208D10B49091F096841F47041094A71
:1006C000121F11600BE007495031884207D10549DC
:1006D000091F096841F47021024A121F1160704716
:1006E000080002400804024001460020002201F0F8
:1006F000805313B1054B1A6801E0054B1A6802EAF2
:1007000001030BB1012000E000207047000402400B
:100710000000024010B50022026847F6F0739A43C9
:100720000C6A8B6823430C6923434C6923438C690F
:100730002343CC6923434C6A23438C6A23431A43E3
:100740000260CB6843600B6883604B68C36010BD78
:1007500070472DE9F04102460025002600200023C5
:100760000024002791F803C00CF00F0591F803C096
:100770000CF0100CBCF1000F03D091F802C04CEA51
:10078000050591F800C0BCF1000F31D014680020BD
:100790002BE04FF0010C0CFA00F3B1F800C00CEAAA
:1007A00003069E4220D183004FF00F0C0CFA03F792
:1007B000BC4305FA03FC4CEA040491F803C0BCF105
:1007C000280F06D14FF0010C0CFA00FCC2F814C03F
:1007D0000AE091F803C0BCF1480F05D14FF0010CBD
:1007E0000CFA00FCC2F810C0401C0828D1D31460D9
:1007F000B1F800C0BCF1FF0F34DD546800202EE0DA
:1008000000F1080C4FF0010808FA0CF3B1F800C031
:100810000CEA03069E4221D183004FF00F0C0CFA24
:1008200003F7BC4305FA03FC4CEA040491F803C047
:10083000BCF1280F05D100F1080C08FA0CF8C2F839
:10084000148091F803C0BCF1480F07D100F1080CE7
:100850004FF0010808FA0CF8C2F81080401C082874
:10086000CED35460BDE8F0814161704700BFFEE720
:1008700008B50121102000F079F810208DF8030050
:100880004002ADF8000003208DF8020069460248DE
:10089000FFF75FFF08BD00000010014000BFFEE74A
:1008A0007047000070B5002100230F22C47804B304
:1008B000154C246804F4E064C4F5E064210AC1F135
:1008C0000403CA40447804FA03F1847814402143B5
:1008D00009010E4C0678A155047804F01F05012487
:1008E000AC4005786D11AD0005F1E025C5F800417B
:1008F00009E0047804F01F050124AC40044D06789B
:10090000761145F8264070BD0CED00E000E400E0F3
:1009100080E100E002490143024A11607047000093
:100920000000FA050CED00E07047000029B1064A0E
:1009300052690243044B5A6104E0034A52698243FC
:10094000014B5A61704700000010024029B1064A6D
:10095000D2690243044BDA6104E0034AD26982435C
:10096000014BDA61704700000010024029B1064ACD
:1009700092690243044B9A6104E0034A92698243FC
:10098000014B9A61704700000010024030B5002111
:100990000022002400232D4D6D6805F00C0121B1CB
:1009A000042905D0082923D105E0294D056022E05E
:1009B000274D05601FE0254D6D6805F47012234D2D
:1009C0006D6805F48034022505EB92421CB9214D77
:1009D000554305600BE01D4D6D6805F400351DB1F4
:1009E0001C4D5543056002E0194D5543056002E07A
:1009F000174D056000BF00BF144D6D6805F0F00194
:100A00000909154D6B5C0568DD4045600F4D6D684B
:100A100005F4E061090A104D6B5C4568DD408560B6
:100A20000A4D6D6805F46051C90A0B4D6B5C456851
:100A3000DD40C560054D6D6805F44041890B074DEB
:100A40006B5CC568B5FBF3F5056130BD0010024075
:100A500000127A0000093D00000000201000002074
:100A6000704710B500F002F810BD00000CB5002072
:100A7000019000903348006840F4803031490860AC
:100A800000BF3048006800F4003000900198401C1E
:100A90000190009818B90198B0F5A06FF1D12948DC
:100AA000006800F4003010B10120009001E0002047
:100AB00000900098012843D12348006840F01000BE
:100AC000214908600846006820F0030008600846D5
:100AD000006840F0020008601A4840681949486000
:100AE0000846406848600846406840F480604860B6
:100AF0000846406820F47C1048600846406840F48E
:100B0000E81048600846006840F08070086000BF48
:100B10000C48006800F000700028F9D009484068CF
:100B200020F00300074948600846406840F0020092
:100B3000486000BF0348406800F00C000828F9D165
:100B40000CBD0000001002400020024008B5F0205B
:100B5000ADF8000010208DF8030003208DF802008E
:100B600069460448FFF7F5FDF0210248FFF77CFED7
:100B700008BD00000008014010B5FFF7D6FC00F0EA
:100B80000BF8FFF775FE00F02FFAFFF7DFFFFFF716
:100B900013FBFFF783FB10BD70B5002105E00020BB
:100BA000154A42F82100481CC1B20629F7DB134A56
:100BB000B2F1807F00D31DE022F07F40401E4FF055
:100BC000E023586158170F23002807DA1C07260E68
:100BD0000B4C00F00F052D1F665503E01C07250E7A
:100BE000084C255400BF00204FF0E02398610720F7
:100BF000186100BF70BD00002C00002040190100EA
:100C000018ED00E000E400E000200CE00D4951F890
:100C1000201031B10B4951F82010491E094A42F801
:100C20002010411CC8B20628F0DB07490968064AB3
:100C30001268521C044B491C1A6011B900211A4653
:100C4000116070472C0000202000002010B51348D0
:100C5000006840F0010011490860084640681049EA
:100C600008400E494860084600680E4908400B4994
:100C700008600846006820F4802008600846406844
:100C800020F4FE0048604FF41F008860FFF7E9FE83
:100C90004FF000600449086010BD000000100240E1
:100CA0000000FFF8FFFFF6FE08ED00E021B102882A
:100CB00042F00102028004E002884FF6FE731A40FF
:100CC0000280704731B1B0F8442042F40042A0F8ED
:100CD000442005E0B0F84420C2F30E02A0F84420FE
:100CE0007047000070B5002200230024058C4EF6EA
:100CF000FF7635400584038C8488828B48F6FF7527
:100D00002A404FF6FF452A400D884FF6FF7606EA47
:100D100005252A434DF6FF752B400D8906EA05355A
:100D20002B434D8806EA05352B430B4DA84202D0D4
:100D30000A4DA84208D14BF6FF752C408D894FF61D
:100D4000FF7606EA85152C4384808283CD88A0F83F
:100D50004050038470BD0000002C0140003401406D
:100D6000002202881D4B98420ED01D4B98420BD09A
:100D7000B0F1804F08D01B4B984205D01A4B9842D7
:100D800002D01A4B984204D14FF68F731A404B8809
:100D90001A43174B984207D0164B984204D04FF68F
:100DA000FF431A40CB881A4302808B8883850B88C7
:100DB00003850A4B98420BD0094B984208D00E4B42
:100DC000984205D00D4B984202D00D4B984201D16C
:100DD0000B7A03860123838270470000002C0140B8
:100DE000003401400004004000080040000C0040B6
:100DF0000010004000140040004001400044014049
:100E0000004801404FF6FF71818000210180C180C0
:100E1000418001727047000010B52021104800F099
:100E200038F888B10E4800F0D3F8C4B2012C03D1D1
:100E300001200C49087003E014B902200949087028
:100E40002021074800F010F80821054800F021F89B
:100E5000012803D10821024800F006F810BD000067
:100E6000003801401500002001F40072B2F5007F47
:100E700000D100BFCA430280704721B1828942F489
:100E80000052828104E082894DF6FF731A4082810C
:100E9000704702460020B1F5007F00D100BF1388E3
:100EA0000B400BB1012000E000207047F0B5034675
:100EB000002400260025002040F66A17B94200D120
:100EC00000BF1846C1F3421401F01F06012707FABC
:100ED00006F5012C01D10C3004E0022C01D11030B8
:100EE00000E014301AB107682F43076002E007687A
:100EF000AF430760F0BD00002DE9F04786B005461E
:100F00000E460024A24600BFA1460027B08900B1CA
:100F100000BF2F462C8A4CF6FF700440F088044333
:100F20002C82AC894EF6F3100440B0883189084316
:100F3000718908430443AC81AC8A4FF6FF400440FA
:100F4000B0890443AC8201A8FFF720FD1F48874207
:100F500002D1DDF810A001E0DDF80CA0A88900F4B2
:100F6000004040B10AEBCA0000EB0A1031684900AA
:100F7000B0FBF1F807E00AEBCA0000EB0A10316899
:100F80008900B0FBF1F86420B8FBF0F004012009FF
:100F9000642101FB1089A88900F4004040B132208F
:100FA00000EBC900B0FBF1F000F00700044308E0DB
:100FB000322000EB09106421B0FBF1F000F00F00CB
:100FC00004432C8106B0BDE8F087000000380140E2
:100FD00001468888C0F308007047C1F30802828088
:100FE000704700BFFEE7000000B587B00121042074
:100FF000FFF7BCFC01218803FFF7B8FC18208DF82F
:101000001B004FF40070ADF8180003208DF81A0093
:1010100006A92048FFF79DFB04208DF81B00000265
:10102000ADF8180003208DF81A0006A91948FFF73B
:1010300090FB4FF4E13002900020ADF80C00ADF8C9
:101040000E00ADF810000C20ADF812000020ADF835
:10105000140002A91048FFF74FFF25208DF8040067
:1010600001208DF805008DF806008DF8070001A815
:10107000FFF718FC012240F225510748FFF716FF41
:1010800001210548FFF7F9FE40210348FFF7ECFE78
:1010900007B000BD00080140003801400FB4054B07
:1010A00010B503A9044A029800F018F810BC5DF8C6
:1010B00014FB0000311200082800002002E008C8DC
:1010C000121F08C1002AFAD170477047002001E0C2
:1010D00001C1121F002AFBD1704700002DE9FF4F0C
:1010E00089B09B460446002506E025280BD05A46C9
:1010F0000B999047641C6D1C20780028F5D10DB029
:101100002846BDE8F08F0027B8460122474900E095
:10111000074314F8013F203B02FA03F00842F7D1DD
:1011200020782E2819D114F8010F47F004072A2837
:101130000ED06FF02F022078A0F1300109290CD8D1
:1011400008EB880102EB410100EB0108641CF2E7A7
:101150000A98641C50F8048B0A9020780028CED09E
:10116000642808D0692806D075281ED05A460B99E5
:1011700090476D1C58E00A994FF00A0901C90A917D
:10118000002802DA40422D2102E0390504D52B2146
:101190008DF82010012103E0F90704D02021F7E7A2
:1011A0008A4608AE0DE00021FAE70A994FF00A09D5
:1011B00001C90A91F7E74946FEF7D6FF303106F834
:1011C000011D0028F7D1ADEB060000F120097807DA
:1011D00001D44FF00108C84502DDA8EB090000E08A
:1011E00000208046002706E008A85A46C05D0B99FB
:1011F00090476D1C7F1C5745F6DB04E030205A46B3
:101200000B9990476D1CB8F10001A8F10108F5DCBD
:1012100005E016F8010B5A460B9990476D1CB9F181
:101220000001A9F10109F4DC641C65E7092801004B
:1012300070B504460D46E1B20548FFF7CEFE00BF8B
:1012400040210348FFF725FE0028F9D0204670BD55
:1012500000380140FFF790FC04A0FFF71FFF04E0F7
:101260000448418804A0FFF719FFF9E76C6F616437
:101270000D0A0000240000202025640D0A00000053
:10128000A0120008000000202C000000BC10000884
:10129000CC1200082C0000201C040000CC10000818
:1012A000000000000102030401020304060708090C
:1012B0000204060800020100000000000000000017
:0C12C00000000000000000000000000022
:0400000508000131BD
:00000001FF
